{
  "address": "0xDC3D8318Fbaec2de49281843f5bba22e78338146",
  "abi": [
    {
      "inputs": [
        {
          "internalType": "address",
          "name": "admin",
          "type": "address"
        },
        {
          "internalType": "address",
          "name": "operator",
          "type": "address"
        },
        {
          "internalType": "address",
          "name": "minter",
          "type": "address"
        },
        {
          "internalType": "string",
          "name": "baseURI",
          "type": "string"
        },
        {
          "internalType": "string",
          "name": "_name",
          "type": "string"
        },
        {
          "internalType": "string",
          "name": "_symbol",
          "type": "string"
        }
      ],
      "stateMutability": "nonpayable",
      "type": "constructor"
    },
    {
      "inputs": [],
      "name": "InvalidShortString",
      "type": "error"
    },
    {
      "inputs": [
        {
          "internalType": "string",
          "name": "str",
          "type": "string"
        }
      ],
      "name": "StringTooLong",
      "type": "error"
    },
    {
      "anonymous": false,
      "inputs": [
        {
          "indexed": true,
          "internalType": "address",
          "name": "account",
          "type": "address"
        },
        {
          "indexed": true,
          "internalType": "address",
          "name": "operator",
          "type": "address"
        },
        {
          "indexed": false,
          "internalType": "bool",
          "name": "approved",
          "type": "bool"
        }
      ],
      "name": "ApprovalForAll",
      "type": "event"
    },
    {
      "anonymous": false,
      "inputs": [
        {
          "indexed": true,
          "internalType": "string",
          "name": "newBaseURI",
          "type": "string"
        }
      ],
      "name": "BaseURISet",
      "type": "event"
    },
    {
      "anonymous": false,
      "inputs": [],
      "name": "EIP712DomainChanged",
      "type": "event"
    },
    {
      "anonymous": false,
      "inputs": [
        {
          "indexed": true,
          "internalType": "address",
          "name": "userAddress",
          "type": "address"
        },
        {
          "indexed": true,
          "internalType": "uint256",
          "name": "userNonce",
          "type": "uint256"
        },
        {
          "indexed": false,
          "internalType": "uint256[]",
          "name": "nftIds",
          "type": "uint256[]"
        }
      ],
      "name": "Minted",
      "type": "event"
    },
    {
      "anonymous": false,
      "inputs": [
        {
          "indexed": false,
          "internalType": "uint256",
          "name": "newPrice",
          "type": "uint256"
        }
      ],
      "name": "PriceUpdated",
      "type": "event"
    },
    {
      "anonymous": false,
      "inputs": [
        {
          "indexed": true,
          "internalType": "bytes32",
          "name": "role",
          "type": "bytes32"
        },
        {
          "indexed": true,
          "internalType": "bytes32",
          "name": "previousAdminRole",
          "type": "bytes32"
        },
        {
          "indexed": true,
          "internalType": "bytes32",
          "name": "newAdminRole",
          "type": "bytes32"
        }
      ],
      "name": "RoleAdminChanged",
      "type": "event"
    },
    {
      "anonymous": false,
      "inputs": [
        {
          "indexed": true,
          "internalType": "bytes32",
          "name": "role",
          "type": "bytes32"
        },
        {
          "indexed": true,
          "internalType": "address",
          "name": "account",
          "type": "address"
        },
        {
          "indexed": true,
          "internalType": "address",
          "name": "sender",
          "type": "address"
        }
      ],
      "name": "RoleGranted",
      "type": "event"
    },
    {
      "anonymous": false,
      "inputs": [
        {
          "indexed": true,
          "internalType": "bytes32",
          "name": "role",
          "type": "bytes32"
        },
        {
          "indexed": true,
          "internalType": "address",
          "name": "account",
          "type": "address"
        },
        {
          "indexed": true,
          "internalType": "address",
          "name": "sender",
          "type": "address"
        }
      ],
      "name": "RoleRevoked",
      "type": "event"
    },
    {
      "anonymous": false,
      "inputs": [
        {
          "indexed": true,
          "internalType": "uint256",
          "name": "tokenId",
          "type": "uint256"
        },
        {
          "indexed": true,
          "internalType": "string",
          "name": "newTokenURI",
          "type": "string"
        }
      ],
      "name": "TokenURISet",
      "type": "event"
    },
    {
      "anonymous": false,
      "inputs": [
        {
          "indexed": true,
          "internalType": "uint256",
          "name": "tokenId",
          "type": "uint256"
        },
        {
          "indexed": true,
          "internalType": "bool",
          "name": "lock",
          "type": "bool"
        }
      ],
      "name": "TokenUnlockSet",
      "type": "event"
    },
    {
      "anonymous": false,
      "inputs": [
        {
          "indexed": true,
          "internalType": "address",
          "name": "operator",
          "type": "address"
        },
        {
          "indexed": true,
          "internalType": "address",
          "name": "from",
          "type": "address"
        },
        {
          "indexed": true,
          "internalType": "address",
          "name": "to",
          "type": "address"
        },
        {
          "indexed": false,
          "internalType": "uint256[]",
          "name": "ids",
          "type": "uint256[]"
        },
        {
          "indexed": false,
          "internalType": "uint256[]",
          "name": "values",
          "type": "uint256[]"
        }
      ],
      "name": "TransferBatch",
      "type": "event"
    },
    {
      "anonymous": false,
      "inputs": [
        {
          "indexed": true,
          "internalType": "address",
          "name": "operator",
          "type": "address"
        },
        {
          "indexed": true,
          "internalType": "address",
          "name": "from",
          "type": "address"
        },
        {
          "indexed": true,
          "internalType": "address",
          "name": "to",
          "type": "address"
        },
        {
          "indexed": false,
          "internalType": "uint256",
          "name": "id",
          "type": "uint256"
        },
        {
          "indexed": false,
          "internalType": "uint256",
          "name": "value",
          "type": "uint256"
        }
      ],
      "name": "TransferSingle",
      "type": "event"
    },
    {
      "anonymous": false,
      "inputs": [
        {
          "indexed": false,
          "internalType": "string",
          "name": "value",
          "type": "string"
        },
        {
          "indexed": true,
          "internalType": "uint256",
          "name": "id",
          "type": "uint256"
        }
      ],
      "name": "URI",
      "type": "event"
    },
    {
      "anonymous": false,
      "inputs": [
        {
          "indexed": false,
          "internalType": "uint256",
          "name": "amount",
          "type": "uint256"
        }
      ],
      "name": "Withdrawed",
      "type": "event"
    },
    {
      "inputs": [],
      "name": "DEFAULT_ADMIN_ROLE",
      "outputs": [
        {
          "internalType": "bytes32",
          "name": "",
          "type": "bytes32"
        }
      ],
      "stateMutability": "view",
      "type": "function"
    },
    {
      "inputs": [],
      "name": "MINTER_ROLE",
      "outputs": [
        {
          "internalType": "bytes32",
          "name": "",
          "type": "bytes32"
        }
      ],
      "stateMutability": "view",
      "type": "function"
    },
    {
      "inputs": [],
      "name": "NAME",
      "outputs": [
        {
          "internalType": "string",
          "name": "",
          "type": "string"
        }
      ],
      "stateMutability": "view",
      "type": "function"
    },
    {
      "inputs": [],
      "name": "OPERATOR_ROLE",
      "outputs": [
        {
          "internalType": "bytes32",
          "name": "",
          "type": "bytes32"
        }
      ],
      "stateMutability": "view",
      "type": "function"
    },
    {
      "inputs": [],
      "name": "VERSION",
      "outputs": [
        {
          "internalType": "string",
          "name": "",
          "type": "string"
        }
      ],
      "stateMutability": "view",
      "type": "function"
    },
    {
      "inputs": [
        {
          "internalType": "address",
          "name": "account",
          "type": "address"
        },
        {
          "internalType": "uint256",
          "name": "id",
          "type": "uint256"
        }
      ],
      "name": "balanceOf",
      "outputs": [
        {
          "internalType": "uint256",
          "name": "",
          "type": "uint256"
        }
      ],
      "stateMutability": "view",
      "type": "function"
    },
    {
      "inputs": [
        {
          "internalType": "address[]",
          "name": "accounts",
          "type": "address[]"
        },
        {
          "internalType": "uint256[]",
          "name": "ids",
          "type": "uint256[]"
        }
      ],
      "name": "balanceOfBatch",
      "outputs": [
        {
          "internalType": "uint256[]",
          "name": "",
          "type": "uint256[]"
        }
      ],
      "stateMutability": "view",
      "type": "function"
    },
    {
      "inputs": [],
      "name": "eip712Domain",
      "outputs": [
        {
          "internalType": "bytes1",
          "name": "fields",
          "type": "bytes1"
        },
        {
          "internalType": "string",
          "name": "name",
          "type": "string"
        },
        {
          "internalType": "string",
          "name": "version",
          "type": "string"
        },
        {
          "internalType": "uint256",
          "name": "chainId",
          "type": "uint256"
        },
        {
          "internalType": "address",
          "name": "verifyingContract",
          "type": "address"
        },
        {
          "internalType": "bytes32",
          "name": "salt",
          "type": "bytes32"
        },
        {
          "internalType": "uint256[]",
          "name": "extensions",
          "type": "uint256[]"
        }
      ],
      "stateMutability": "view",
      "type": "function"
    },
    {
      "inputs": [
        {
          "internalType": "uint256",
          "name": "id",
          "type": "uint256"
        }
      ],
      "name": "exists",
      "outputs": [
        {
          "internalType": "bool",
          "name": "",
          "type": "bool"
        }
      ],
      "stateMutability": "view",
      "type": "function"
    },
    {
      "inputs": [],
      "name": "getPrice",
      "outputs": [
        {
          "internalType": "uint256",
          "name": "",
          "type": "uint256"
        }
      ],
      "stateMutability": "view",
      "type": "function"
    },
    {
      "inputs": [
        {
          "internalType": "bytes32",
          "name": "role",
          "type": "bytes32"
        }
      ],
      "name": "getRoleAdmin",
      "outputs": [
        {
          "internalType": "bytes32",
          "name": "",
          "type": "bytes32"
        }
      ],
      "stateMutability": "view",
      "type": "function"
    },
    {
      "inputs": [
        {
          "internalType": "uint256",
          "name": "tokenId",
          "type": "uint256"
        }
      ],
      "name": "getTransferStatus",
      "outputs": [
        {
          "internalType": "bool",
          "name": "",
          "type": "bool"
        }
      ],
      "stateMutability": "view",
      "type": "function"
    },
    {
      "inputs": [
        {
          "internalType": "address",
          "name": "userAddress",
          "type": "address"
        }
      ],
      "name": "getUserNonce",
      "outputs": [
        {
          "internalType": "uint256",
          "name": "",
          "type": "uint256"
        }
      ],
      "stateMutability": "view",
      "type": "function"
    },
    {
      "inputs": [
        {
          "internalType": "bytes32",
          "name": "role",
          "type": "bytes32"
        },
        {
          "internalType": "address",
          "name": "account",
          "type": "address"
        }
      ],
      "name": "grantRole",
      "outputs": [],
      "stateMutability": "nonpayable",
      "type": "function"
    },
    {
      "inputs": [
        {
          "internalType": "bytes32",
          "name": "role",
          "type": "bytes32"
        },
        {
          "internalType": "address",
          "name": "account",
          "type": "address"
        }
      ],
      "name": "hasRole",
      "outputs": [
        {
          "internalType": "bool",
          "name": "",
          "type": "bool"
        }
      ],
      "stateMutability": "view",
      "type": "function"
    },
    {
      "inputs": [
        {
          "internalType": "address",
          "name": "account",
          "type": "address"
        },
        {
          "internalType": "address",
          "name": "operator",
          "type": "address"
        }
      ],
      "name": "isApprovedForAll",
      "outputs": [
        {
          "internalType": "bool",
          "name": "",
          "type": "bool"
        }
      ],
      "stateMutability": "view",
      "type": "function"
    },
    {
      "inputs": [],
      "name": "name",
      "outputs": [
        {
          "internalType": "string",
          "name": "",
          "type": "string"
        }
      ],
      "stateMutability": "view",
      "type": "function"
    },
    {
      "inputs": [
        {
          "internalType": "bytes32",
          "name": "role",
          "type": "bytes32"
        },
        {
          "internalType": "address",
          "name": "account",
          "type": "address"
        }
      ],
      "name": "renounceRole",
      "outputs": [],
      "stateMutability": "nonpayable",
      "type": "function"
    },
    {
      "inputs": [
        {
          "internalType": "bytes32",
          "name": "role",
          "type": "bytes32"
        },
        {
          "internalType": "address",
          "name": "account",
          "type": "address"
        }
      ],
      "name": "revokeRole",
      "outputs": [],
      "stateMutability": "nonpayable",
      "type": "function"
    },
    {
      "inputs": [
        {
          "internalType": "address",
          "name": "from",
          "type": "address"
        },
        {
          "internalType": "address",
          "name": "to",
          "type": "address"
        },
        {
          "internalType": "uint256[]",
          "name": "ids",
          "type": "uint256[]"
        },
        {
          "internalType": "uint256[]",
          "name": "amounts",
          "type": "uint256[]"
        },
        {
          "internalType": "bytes",
          "name": "data",
          "type": "bytes"
        }
      ],
      "name": "safeBatchTransferFrom",
      "outputs": [],
      "stateMutability": "nonpayable",
      "type": "function"
    },
    {
      "inputs": [
        {
          "components": [
            {
              "internalType": "address",
              "name": "userAddress",
              "type": "address"
            },
            {
              "internalType": "uint256",
              "name": "userNonce",
              "type": "uint256"
            },
            {
              "internalType": "uint256[]",
              "name": "nftIds",
              "type": "uint256[]"
            }
          ],
          "internalType": "struct IRubyscore_Achievement.MintParams",
          "name": "mintParams",
          "type": "tuple"
        },
        {
          "internalType": "bytes",
          "name": "operatorSignature",
          "type": "bytes"
        }
      ],
      "name": "safeMint",
      "outputs": [],
      "stateMutability": "payable",
      "type": "function"
    },
    {
      "inputs": [
        {
          "internalType": "address",
          "name": "from",
          "type": "address"
        },
        {
          "internalType": "address",
          "name": "to",
          "type": "address"
        },
        {
          "internalType": "uint256",
          "name": "id",
          "type": "uint256"
        },
        {
          "internalType": "uint256",
          "name": "amount",
          "type": "uint256"
        },
        {
          "internalType": "bytes",
          "name": "data",
          "type": "bytes"
        }
      ],
      "name": "safeTransferFrom",
      "outputs": [],
      "stateMutability": "nonpayable",
      "type": "function"
    },
    {
      "inputs": [
        {
          "internalType": "address",
          "name": "operator",
          "type": "address"
        },
        {
          "internalType": "bool",
          "name": "approved",
          "type": "bool"
        }
      ],
      "name": "setApprovalForAll",
      "outputs": [],
      "stateMutability": "nonpayable",
      "type": "function"
    },
    {
      "inputs": [
        {
          "internalType": "string",
          "name": "newBaseURI",
          "type": "string"
        }
      ],
      "name": "setBaseURI",
      "outputs": [],
      "stateMutability": "nonpayable",
      "type": "function"
    },
    {
      "inputs": [
        {
          "internalType": "uint256[]",
          "name": "tokenIds",
          "type": "uint256[]"
        },
        {
          "internalType": "string[]",
          "name": "newTokenURIs",
          "type": "string[]"
        }
      ],
      "name": "setBatchTokenURI",
      "outputs": [],
      "stateMutability": "nonpayable",
      "type": "function"
    },
    {
      "inputs": [
        {
          "internalType": "uint256",
          "name": "newPrice",
          "type": "uint256"
        }
      ],
      "name": "setPrice",
      "outputs": [],
      "stateMutability": "nonpayable",
      "type": "function"
    },
    {
      "inputs": [
        {
          "internalType": "uint256",
          "name": "tokenId",
          "type": "uint256"
        },
        {
          "internalType": "string",
          "name": "newTokenURI",
          "type": "string"
        }
      ],
      "name": "setTokenURI",
      "outputs": [],
      "stateMutability": "nonpayable",
      "type": "function"
    },
    {
      "inputs": [
        {
          "internalType": "uint256",
          "name": "tokenId",
          "type": "uint256"
        },
        {
          "internalType": "bool",
          "name": "lock",
          "type": "bool"
        }
      ],
      "name": "setTransferUnlock",
      "outputs": [],
      "stateMutability": "nonpayable",
      "type": "function"
    },
    {
      "inputs": [
        {
          "internalType": "bytes4",
          "name": "interfaceId",
          "type": "bytes4"
        }
      ],
      "name": "supportsInterface",
      "outputs": [
        {
          "internalType": "bool",
          "name": "",
          "type": "bool"
        }
      ],
      "stateMutability": "view",
      "type": "function"
    },
    {
      "inputs": [],
      "name": "symbol",
      "outputs": [
        {
          "internalType": "string",
          "name": "",
          "type": "string"
        }
      ],
      "stateMutability": "view",
      "type": "function"
    },
    {
      "inputs": [
        {
          "internalType": "uint256",
          "name": "tokenId",
          "type": "uint256"
        }
      ],
      "name": "tokenURI",
      "outputs": [
        {
          "internalType": "string",
          "name": "",
          "type": "string"
        }
      ],
      "stateMutability": "view",
      "type": "function"
    },
    {
      "inputs": [
        {
          "internalType": "uint256",
          "name": "id",
          "type": "uint256"
        }
      ],
      "name": "totalSupply",
      "outputs": [
        {
          "internalType": "uint256",
          "name": "",
          "type": "uint256"
        }
      ],
      "stateMutability": "view",
      "type": "function"
    },
    {
      "inputs": [
        {
          "internalType": "uint256",
          "name": "tokenId",
          "type": "uint256"
        }
      ],
      "name": "uri",
      "outputs": [
        {
          "internalType": "string",
          "name": "",
          "type": "string"
        }
      ],
      "stateMutability": "view",
      "type": "function"
    },
    {
      "inputs": [],
      "name": "withdraw",
      "outputs": [],
      "stateMutability": "nonpayable",
      "type": "function"
    }
  ],
  "transactionHash": "0xe86fd895f181979320702e6bbc406b0ce91da3ca08510a0c5918466bc410ca42",
  "args": [
    "0x0d0D5Ff3cFeF8B7B2b1cAC6B6C27Fd0846c09361",
    "0x381c031bAA5995D0Cc52386508050Ac947780815",
    "0x381c031bAA5995D0Cc52386508050Ac947780815",
    "ipfs://",
    "Rubyscore_Scroll",
    "Rubyscore_Scroll"
  ],
  "numDeployments": 1,
  "solcInputHash": "e6e1f6a3d512403e6988fa888e973f88",
  "bytecode": "0x61018060405260006101609081526007906200001c908262000501565b503480156200002a57600080fd5b5060405162003fa938038062003fa98339810160408190526200004d91620006a1565b6040518060400160405280601581526020017f5275627973636f72655f416368696576656d656e74000000000000000000000081525060405180604001604052806005815260200164302e302e3160d81b81525060405180604001604052806007815260200166697066733a2f2f60c81b815250620000d2816200031c60201b60201c565b50620000e08260036200032e565b61012052620000f18160046200032e565b61014052815160208084019190912060e052815190820120610100524660a0526200017f60e05161010051604080517f8b73c3c69bb8fe3d512ecc4cf759cc79239f7b179b0ffacaa9a75d522b39400f60208201529081019290925260608201524660808201523060a082015260009060c00160405160208183030381529060405280519060200120905090565b60805250503060c05260016009556001600160a01b038616620001de5760405162461bcd60e51b81526020600482015260126024820152715a65726f206164647265737320636865636b60701b60448201526064015b60405180910390fd5b6001600160a01b0385166200022b5760405162461bcd60e51b81526020600482015260126024820152715a65726f206164647265737320636865636b60701b6044820152606401620001d5565b6001600160a01b038416620002785760405162461bcd60e51b81526020600482015260126024820152715a65726f206164647265737320636865636b60701b6044820152606401620001d5565b600b62000286838262000501565b50600c62000295828262000501565b50620002a360008762000367565b620002be60008051602062003f898339815191523362000367565b620002d960008051602062003f898339815191528662000367565b620003057f9f2df0fed2c77648de5860a4cc508cd0818c85b8b8a1ab4ceeef8d981c8956a68562000367565b62000310836200040b565b505050505050620007c4565b60026200032a828262000501565b5050565b60006020835110156200034e57620003468362000419565b905062000361565b816200035b848262000501565b5060ff90505b92915050565b60008281526005602090815260408083206001600160a01b038516845290915290205460ff166200032a5760008281526005602090815260408083206001600160a01b03851684529091529020805460ff19166001179055620003c73390565b6001600160a01b0316816001600160a01b0316837f2f8788117e7eff1d82e926ec794901d17c78024a50270940304540a733656f0d60405160405180910390a45050565b60076200032a828262000501565b600080829050601f8151111562000447578260405163305a27a960e01b8152600401620001d591906200076a565b805162000454826200079f565b179392505050565b634e487b7160e01b600052604160045260246000fd5b600181811c908216806200048757607f821691505b602082108103620004a857634e487b7160e01b600052602260045260246000fd5b50919050565b601f821115620004fc57600081815260208120601f850160051c81016020861015620004d75750805b601f850160051c820191505b81811015620004f857828155600101620004e3565b5050505b505050565b81516001600160401b038111156200051d576200051d6200045c565b62000535816200052e845462000472565b84620004ae565b602080601f8311600181146200056d5760008415620005545750858301515b600019600386901b1c1916600185901b178555620004f8565b600085815260208120601f198616915b828110156200059e578886015182559484019460019091019084016200057d565b5085821015620005bd5787850151600019600388901b60f8161c191681555b5050505050600190811b01905550565b80516001600160a01b0381168114620005e557600080fd5b919050565b60005b8381101562000607578181015183820152602001620005ed565b50506000910152565b600082601f8301126200062257600080fd5b81516001600160401b03808211156200063f576200063f6200045c565b604051601f8301601f19908116603f011681019082821181831017156200066a576200066a6200045c565b816040528381528660208588010111156200068457600080fd5b62000697846020830160208901620005ea565b9695505050505050565b60008060008060008060c08789031215620006bb57600080fd5b620006c687620005cd565b9550620006d660208801620005cd565b9450620006e660408801620005cd565b60608801519094506001600160401b03808211156200070457600080fd5b620007128a838b0162000610565b945060808901519150808211156200072957600080fd5b620007378a838b0162000610565b935060a08901519150808211156200074e57600080fd5b506200075d89828a0162000610565b9150509295509295509295565b60208152600082518060208401526200078b816040850160208701620005ea565b601f01601f19169190910160400192915050565b80516020808301519190811015620004a85760001960209190910360031b1b16919050565b60805160a05160c05160e05161010051610120516101405161376a6200081f6000396000610f1d01526000610ef201526000611e8901526000611e6101526000611dbc01526000611de601526000611e10015261376a6000f3fe6080604052600436106101f85760003560e01c806391d148541161010d578063ba772d8b116100a0578063d547741f1161006f578063d547741f14610615578063e985e9c514610635578063f242432a1461067e578063f5b541a61461069e578063ffa1ad74146106c057600080fd5b8063ba772d8b14610586578063bd85b039146105a6578063c87b56dd146105d3578063d5391393146105f357600080fd5b8063a217fddf116100dc578063a217fddf146104e0578063a22cb465146104f5578063a3f4df7e14610515578063b93c37701461055657600080fd5b806391d148541461047657806395d89b411461049657806398d5fdca146104ab5780639b3e5573146104c057600080fd5b806336568abe1161019057806355f804b31161015f57806355f804b3146103c55780636834e3a8146103e55780637c2ccc451461041b57806384b0196e1461042e57806391b7f5ed1461045657600080fd5b806336568abe146103345780633ccfd60b146103545780634e1273f4146103695780634f558e791461039657600080fd5b8063162094c4116101cc578063162094c4146102a2578063248a9ca3146102c45780632eb2c2d6146102f45780632f2ff15d1461031457600080fd5b8062fdd58e146101fd57806301ffc9a71461023057806306fdde03146102605780630e89341c14610282575b600080fd5b34801561020957600080fd5b5061021d61021836600461281e565b6106f1565b6040519081526020015b60405180910390f35b34801561023c57600080fd5b5061025061024b36600461285e565b61078a565b6040519015158152602001610227565b34801561026c57600080fd5b50610275610795565b60405161022791906128cb565b34801561028e57600080fd5b5061027561029d3660046128de565b610823565b3480156102ae57600080fd5b506102c26102bd3660046129d1565b61082e565b005b3480156102d057600080fd5b5061021d6102df3660046128de565b60009081526005602052604090206001015490565b34801561030057600080fd5b506102c261030f366004612aab565b610895565b34801561032057600080fd5b506102c261032f366004612b54565b6108e1565b34801561034057600080fd5b506102c261034f366004612b54565b61090b565b34801561036057600080fd5b506102c2610989565b34801561037557600080fd5b50610389610384366004612b80565b610aa9565b6040516102279190612c7b565b3480156103a257600080fd5b506102506103b13660046128de565b600090815260066020526040902054151590565b3480156103d157600080fd5b506102c26103e0366004612c8e565b610bd2565b3480156103f157600080fd5b5061021d610400366004612cca565b6001600160a01b03166000908152600e602052604090205490565b6102c2610429366004612d26565b610c35565b34801561043a57600080fd5b50610443610ee4565b6040516102279796959493929190612ddb565b34801561046257600080fd5b506102c26104713660046128de565b610f6d565b34801561048257600080fd5b50610250610491366004612b54565b610fc1565b3480156104a257600080fd5b50610275610fec565b3480156104b757600080fd5b50600a5461021d565b3480156104cc57600080fd5b506102c26104db366004612e5b565b610ff9565b3480156104ec57600080fd5b5061021d600081565b34801561050157600080fd5b506102c2610510366004612e7e565b61105e565b34801561052157600080fd5b5061027560405180604001604052806015815260200174149d589e5cd8dbdc9957d058da1a595d995b595b9d605a1b81525081565b34801561056257600080fd5b506102506105713660046128de565b6000908152600d602052604090205460ff1690565b34801561059257600080fd5b506102c26105a1366004612eec565b611069565b3480156105b257600080fd5b5061021d6105c13660046128de565b60009081526006602052604090205490565b3480156105df57600080fd5b506102756105ee3660046128de565b611160565b3480156105ff57600080fd5b5061021d60008051602061371583398151915281565b34801561062157600080fd5b506102c2610630366004612b54565b61116b565b34801561064157600080fd5b50610250610650366004612f57565b6001600160a01b03918216600090815260016020908152604080832093909416825291909152205460ff1690565b34801561068a57600080fd5b506102c2610699366004612f81565b611190565b3480156106aa57600080fd5b5061021d6000805160206136f583398151915281565b3480156106cc57600080fd5b5061027560405180604001604052806005815260200164302e302e3160d81b81525081565b60006001600160a01b0383166107615760405162461bcd60e51b815260206004820152602a60248201527f455243313135353a2061646472657373207a65726f206973206e6f742061207660448201526930b634b21037bbb732b960b11b60648201526084015b60405180910390fd5b506000818152602081815260408083206001600160a01b03861684529091529020545b92915050565b6000610784826111d5565b600b80546107a290612fe5565b80601f01602080910402602001604051908101604052809291908181526020018280546107ce90612fe5565b801561081b5780601f106107f05761010080835404028352916020019161081b565b820191906000526020600020905b8154815290600101906020018083116107fe57829003601f168201915b505050505081565b6060610784826111fa565b600080516020613715833981519152610846816112da565b61085083836112e7565b8160405161085e919061301f565b6040519081900381209084907fda84ca2183491f179a603e877b2cb058e42195041c2b9c53d746427e519a34df90600090a3505050565b6001600160a01b0385163314806108b157506108b18533610650565b6108cd5760405162461bcd60e51b81526004016107589061303b565b6108da8585858585611344565b5050505050565b6000828152600560205260409020600101546108fc816112da565b61090683836114e6565b505050565b6001600160a01b038116331461097b5760405162461bcd60e51b815260206004820152602f60248201527f416363657373436f6e74726f6c3a2063616e206f6e6c792072656e6f756e636560448201526e103937b632b9903337b91039b2b63360891b6064820152608401610758565b610985828261156c565b5050565b6000610994816112da565b47806109e25760405162461bcd60e51b815260206004820152601760248201527f5a65726f20616d6f756e7420746f2077697468647261770000000000000000006044820152606401610758565b604051600090339083908381818185875af1925050503d8060008114610a24576040519150601f19603f3d011682016040523d82523d6000602084013e610a29565b606091505b5050905080610a715760405162461bcd60e51b81526020600482015260146024820152732330b4b632b2103a379039b2b7321022ba3432b960611b6044820152606401610758565b6040518281527f11e9d9f7a772129e26cb0560945658c96b41c42ac6712d233e20c894bfcd00fd9060200160405180910390a1505050565b60608151835114610b0e5760405162461bcd60e51b815260206004820152602960248201527f455243313135353a206163636f756e747320616e6420696473206c656e677468604482015268040dad2e6dac2e8c6d60bb1b6064820152608401610758565b600083516001600160401b03811115610b2957610b296128f7565b604051908082528060200260200182016040528015610b52578160200160208202803683370190505b50905060005b8451811015610bca57610b9d858281518110610b7657610b76613089565b6020026020010151858381518110610b9057610b90613089565b60200260200101516106f1565b828281518110610baf57610baf613089565b6020908102919091010152610bc3816130b5565b9050610b58565b509392505050565b6000805160206136f5833981519152610bea816112da565b610bf3826115d3565b81604051610c01919061301f565b604051908190038120907ff9c7803e94e0d3c02900d8a90893a6d5e90dd04d32a4cfe825520f82bf9f32f690600090a25050565b610c3d6115df565b60018360400151511015610c855760405162461bcd60e51b815260206004820152600f60248201526e496e76616c6964204e46542069647360881b6044820152606401610758565b600a543414610ccd5760405162461bcd60e51b815260206004820152601460248201527315dc9bdb99c81c185e5b595b9d08185b5bdd5b9d60621b6044820152606401610758565b6000610d927f66fe4d8b6c8e0542c70e2a244bf04681bb936b001f1be0f079a80e77158a847433600e6000336001600160a01b03166001600160a01b03168152602001908152602001600020548760400151604051602001610d2f91906130ce565b60405160208183030381529060405280519060200120604051602001610d7794939291909384526001600160a01b039290921660208401526040830152606082015260800190565b60405160208183030381529060405280519060200120611638565b9050610deb600080516020613715833981519152610de68386868080601f01602080910402602001604051908101604052809392919081815260200183838082843760009201919091525061166592505050565b611681565b83516001600160a01b03166000908152600e60205260408120805460019290610e15908490613104565b909155505060408401515160011015610e4f57610e4a84600001518560400151604051806020016040528060008152506116da565b610e8b565b610e8b84600001518560400151600081518110610e6e57610e6e613089565b6020026020010151604051806020016040528060008152506117ad565b836020015184600001516001600160a01b03167fff0a1dc048ef1a5e9e2845c6bb6cafd8b8531f3cb15368f4a708dec7d7bc789f8660400151604051610ed19190612c7b565b60405180910390a3506109066001600955565b600060608082808083610f187f000000000000000000000000000000000000000000000000000000000000000060036117e1565b610f437f000000000000000000000000000000000000000000000000000000000000000060046117e1565b60408051600080825260208201909252600f60f81b9b939a50919850469750309650945092509050565b6000805160206136f5833981519152610f85816112da565b600a8290556040518281527f66cbca4f3c64fecf1dcb9ce094abcf7f68c3450a1d4e3a8e917dd621edb4ebe09060200160405180910390a15050565b60009182526005602090815260408084206001600160a01b0393909316845291905290205460ff1690565b600c80546107a290612fe5565b6000805160206136f5833981519152611011816112da565b6000838152600d6020526040808220805460ff19168515159081179091559051909185917f784afb92b74f2c9ccd3cb1b9697580a90fadab59d6640bbb915d1637bfbbf0089190a3505050565b61098533838361188c565b600080516020613715833981519152611081816112da565b8382146110c15760405162461bcd60e51b815260206004820152600e60248201526d496e76616c696420706172616d7360901b6044820152606401610758565b60005b84811015611158576111468686838181106110e1576110e1613089565b905060200201358585848181106110fa576110fa613089565b905060200281019061110c9190613117565b8080601f01602080910402602001604051908101604052809392919081815260200183838082843760009201919091525061082e92505050565b80611150816130b5565b9150506110c4565b505050505050565b606061078482610823565b600082815260056020526040902060010154611186816112da565b610906838361156c565b6001600160a01b0385163314806111ac57506111ac8533610650565b6111c85760405162461bcd60e51b81526004016107589061303b565b6108da858585858561196c565b60006001600160e01b03198216637965db0b60e01b1480610784575061078482611aa4565b60008181526008602052604081208054606092919061121890612fe5565b80601f016020809104026020016040519081016040528092919081815260200182805461124490612fe5565b80156112915780601f1061126657610100808354040283529160200191611291565b820191906000526020600020905b81548152906001019060200180831161127457829003601f168201915b5050505050905060008151116112af576112aa83611af4565b6112d3565b6007816040516020016112c392919061315d565b6040516020818303038152906040525b9392505050565b6112e48133611681565b50565b60008281526008602052604090206112ff828261322a565b50817f6bb7ff708619ba0610cba295a58592e0451dee2622938c8755667688daf3529b61132b84610823565b60405161133891906128cb565b60405180910390a25050565b81518351146113655760405162461bcd60e51b8152600401610758906132e9565b6001600160a01b03841661138b5760405162461bcd60e51b815260040161075890613331565b3361139a818787878787611b88565b60005b84518110156114805760008582815181106113ba576113ba613089565b6020026020010151905060008583815181106113d8576113d8613089565b602090810291909101810151600084815280835260408082206001600160a01b038e1683529093529190912054909150818110156114285760405162461bcd60e51b815260040161075890613376565b6000838152602081815260408083206001600160a01b038e8116855292528083208585039055908b16825281208054849290611465908490613104565b9250508190555050505080611479906130b5565b905061139d565b50846001600160a01b0316866001600160a01b0316826001600160a01b03167f4a39dc06d4c0dbc64b70af90fd698a233a518aa5d07e595d983b8c0526c8f7fb87876040516114d09291906133c0565b60405180910390a4611158818787878787611c4b565b6114f08282610fc1565b6109855760008281526005602090815260408083206001600160a01b03851684529091529020805460ff191660011790556115283390565b6001600160a01b0316816001600160a01b0316837f2f8788117e7eff1d82e926ec794901d17c78024a50270940304540a733656f0d60405160405180910390a45050565b6115768282610fc1565b156109855760008281526005602090815260408083206001600160a01b0385168085529252808320805460ff1916905551339285917ff6391f5c32d9c69d2a47ea670b442974b53935d1edc7fd64eb21e047a839171b9190a45050565b6007610985828261322a565b6002600954036116315760405162461bcd60e51b815260206004820152601f60248201527f5265656e7472616e637947756172643a207265656e7472616e742063616c6c006044820152606401610758565b6002600955565b6000610784611645611daf565b8360405161190160f01b8152600281019290925260228201526042902090565b60008060006116748585611ee2565b91509150610bca81611f27565b61168b8282610fc1565b6109855761169881612071565b6116a3836020612083565b6040516020016116b49291906133ee565b60408051601f198184030181529082905262461bcd60e51b8252610758916004016128cb565b600082516001600160401b038111156116f5576116f56128f7565b60405190808252806020026020018201604052801561171e578160200160208202803683370190505b50905060005b83518160ff16101561179a5761174985858360ff1681518110610b9057610b90613089565b156117665760405162461bcd60e51b815260040161075890613463565b6001828260ff168151811061177d5761177d613089565b602090810291909101015280611792816134a4565b915050611724565b506117a78484838561221e565b50505050565b6117b783836106f1565b156117d45760405162461bcd60e51b815260040161075890613463565b6109068383600184612378565b606060ff83146117fb576117f483612458565b9050610784565b81805461180790612fe5565b80601f016020809104026020016040519081016040528092919081815260200182805461183390612fe5565b80156118805780601f1061185557610100808354040283529160200191611880565b820191906000526020600020905b81548152906001019060200180831161186357829003601f168201915b50505050509050610784565b816001600160a01b0316836001600160a01b0316036118ff5760405162461bcd60e51b815260206004820152602960248201527f455243313135353a2073657474696e6720617070726f76616c20737461747573604482015268103337b91039b2b63360b91b6064820152608401610758565b6001600160a01b03838116600081815260016020908152604080832094871680845294825291829020805460ff191686151590811790915591519182527f17307eab39ab6107e8899845ad3d59bd9653f200f220920489ca2b5937696c31910160405180910390a3505050565b6001600160a01b0384166119925760405162461bcd60e51b815260040161075890613331565b33600061199e85612497565b905060006119ab85612497565b90506119bb838989858589611b88565b6000868152602081815260408083206001600160a01b038c168452909152902054858110156119fc5760405162461bcd60e51b815260040161075890613376565b6000878152602081815260408083206001600160a01b038d8116855292528083208985039055908a16825281208054889290611a39908490613104565b909155505060408051888152602081018890526001600160a01b03808b16928c821692918816917fc3d58168c5ae7397731d063d5bbf3d657854427343f4c083240f7aacaa2d0f62910160405180910390a4611a99848a8a8a8a8a6124e2565b505050505050505050565b60006001600160e01b03198216636cdb3d1360e11b1480611ad557506001600160e01b031982166303a24d0760e21b145b8061078457506301ffc9a760e01b6001600160e01b0319831614610784565b606060028054611b0390612fe5565b80601f0160208091040260200160405190810160405280929190818152602001828054611b2f90612fe5565b8015611b7c5780601f10611b5157610100808354040283529160200191611b7c565b820191906000526020600020905b815481529060010190602001808311611b5f57829003601f168201915b50505050509050919050565b60005b8351811015611c3c57600d6000858381518110611baa57611baa613089565b60209081029190910181015182528101919091526040016000205460ff16158015611bdd57506001600160a01b03861615155b15611c2a5760405162461bcd60e51b815260206004820152601760248201527f5468697320746f6b656e206f6e6c7920666f7220796f750000000000000000006044820152606401610758565b80611c34816130b5565b915050611b8b565b5061115886868686868661259d565b6001600160a01b0384163b156111585760405163bc197c8160e01b81526001600160a01b0385169063bc197c8190611c8f90899089908890889088906004016134c3565b6020604051808303816000875af1925050508015611cca575060408051601f3d908101601f19168201909252611cc791810190613521565b60015b611d7657611cd661353e565b806308c379a003611d0f5750611cea613559565b80611cf55750611d11565b8060405162461bcd60e51b815260040161075891906128cb565b505b60405162461bcd60e51b815260206004820152603460248201527f455243313135353a207472616e7366657220746f206e6f6e2d455243313135356044820152732932b1b2b4bb32b91034b6b83632b6b2b73a32b960611b6064820152608401610758565b6001600160e01b0319811663bc197c8160e01b14611da65760405162461bcd60e51b8152600401610758906135e2565b50505050505050565b6000306001600160a01b037f000000000000000000000000000000000000000000000000000000000000000016148015611e0857507f000000000000000000000000000000000000000000000000000000000000000046145b15611e3257507f000000000000000000000000000000000000000000000000000000000000000090565b611eda604080517f8b73c3c69bb8fe3d512ecc4cf759cc79239f7b179b0ffacaa9a75d522b39400f60208201527f0000000000000000000000000000000000000000000000000000000000000000918101919091527f000000000000000000000000000000000000000000000000000000000000000060608201524660808201523060a082015260009060c00160405160208183030381529060405280519060200120905090565b905090565b90565b6000808251604103611f185760208301516040840151606085015160001a611f0c87828585612716565b94509450505050611f20565b506000905060025b9250929050565b6000816004811115611f3b57611f3b61362a565b03611f435750565b6001816004811115611f5757611f5761362a565b03611fa45760405162461bcd60e51b815260206004820152601860248201527f45434453413a20696e76616c6964207369676e617475726500000000000000006044820152606401610758565b6002816004811115611fb857611fb861362a565b036120055760405162461bcd60e51b815260206004820152601f60248201527f45434453413a20696e76616c6964207369676e6174757265206c656e677468006044820152606401610758565b60038160048111156120195761201961362a565b036112e45760405162461bcd60e51b815260206004820152602260248201527f45434453413a20696e76616c6964207369676e6174757265202773272076616c604482015261756560f01b6064820152608401610758565b60606107846001600160a01b03831660145b60606000612092836002613640565b61209d906002613104565b6001600160401b038111156120b4576120b46128f7565b6040519080825280601f01601f1916602001820160405280156120de576020820181803683370190505b509050600360fc1b816000815181106120f9576120f9613089565b60200101906001600160f81b031916908160001a905350600f60fb1b8160018151811061212857612128613089565b60200101906001600160f81b031916908160001a905350600061214c846002613640565b612157906001613104565b90505b60018111156121cf576f181899199a1a9b1b9c1cb0b131b232b360811b85600f166010811061218b5761218b613089565b1a60f81b8282815181106121a1576121a1613089565b60200101906001600160f81b031916908160001a90535060049490941c936121c881613657565b905061215a565b5083156112d35760405162461bcd60e51b815260206004820181905260248201527f537472696e67733a20686578206c656e67746820696e73756666696369656e746044820152606401610758565b6001600160a01b0384166122445760405162461bcd60e51b81526004016107589061366e565b81518351146122655760405162461bcd60e51b8152600401610758906132e9565b3361227581600087878787611b88565b60005b84518110156123105783818151811061229357612293613089565b60200260200101516000808784815181106122b0576122b0613089565b602002602001015181526020019081526020016000206000886001600160a01b03166001600160a01b0316815260200190815260200160002060008282546122f89190613104565b90915550819050612308816130b5565b915050612278565b50846001600160a01b031660006001600160a01b0316826001600160a01b03167f4a39dc06d4c0dbc64b70af90fd698a233a518aa5d07e595d983b8c0526c8f7fb87876040516123619291906133c0565b60405180910390a46108da81600087878787611c4b565b6001600160a01b03841661239e5760405162461bcd60e51b81526004016107589061366e565b3360006123aa85612497565b905060006123b785612497565b90506123c883600089858589611b88565b6000868152602081815260408083206001600160a01b038b168452909152812080548792906123f8908490613104565b909155505060408051878152602081018790526001600160a01b03808a1692600092918716917fc3d58168c5ae7397731d063d5bbf3d657854427343f4c083240f7aacaa2d0f62910160405180910390a4611da6836000898989896124e2565b60606000612465836127da565b604080516020808252818301909252919250600091906020820181803683375050509182525060208101929092525090565b604080516001808252818301909252606091600091906020808301908036833701905050905082816000815181106124d1576124d1613089565b602090810291909101015292915050565b6001600160a01b0384163b156111585760405163f23a6e6160e01b81526001600160a01b0385169063f23a6e619061252690899089908890889088906004016136af565b6020604051808303816000875af1925050508015612561575060408051601f3d908101601f1916820190925261255e91810190613521565b60015b61256d57611cd661353e565b6001600160e01b0319811663f23a6e6160e01b14611da65760405162461bcd60e51b8152600401610758906135e2565b6001600160a01b0385166126245760005b8351811015612622578281815181106125c9576125c9613089565b6020026020010151600660008684815181106125e7576125e7613089565b60200260200101518152602001908152602001600020600082825461260c9190613104565b9091555061261b9050816130b5565b90506125ae565b505b6001600160a01b0384166111585760005b8351811015611da657600084828151811061265257612652613089565b60200260200101519050600084838151811061267057612670613089565b60200260200101519050600060066000848152602001908152602001600020549050818110156126f35760405162461bcd60e51b815260206004820152602860248201527f455243313135353a206275726e20616d6f756e74206578636565647320746f74604482015267616c537570706c7960c01b6064820152608401610758565b6000928352600660205260409092209103905561270f816130b5565b9050612635565b6000807f7fffffffffffffffffffffffffffffff5d576e7357a4501ddfe92f46681b20a083111561274d57506000905060036127d1565b6040805160008082526020820180845289905260ff881692820192909252606081018690526080810185905260019060a0016020604051602081039080840390855afa1580156127a1573d6000803e3d6000fd5b5050604051601f1901519150506001600160a01b0381166127ca576000600192509250506127d1565b9150600090505b94509492505050565b600060ff8216601f81111561078457604051632cd44ac360e21b815260040160405180910390fd5b80356001600160a01b038116811461281957600080fd5b919050565b6000806040838503121561283157600080fd5b61283a83612802565b946020939093013593505050565b6001600160e01b0319811681146112e457600080fd5b60006020828403121561287057600080fd5b81356112d381612848565b60005b8381101561289657818101518382015260200161287e565b50506000910152565b600081518084526128b781602086016020860161287b565b601f01601f19169290920160200192915050565b6020815260006112d3602083018461289f565b6000602082840312156128f057600080fd5b5035919050565b634e487b7160e01b600052604160045260246000fd5b606081018181106001600160401b038211171561292c5761292c6128f7565b60405250565b601f8201601f191681016001600160401b0381118282101715612957576129576128f7565b6040525050565b600082601f83011261296f57600080fd5b81356001600160401b03811115612988576129886128f7565b60405161299f601f8301601f191660200182612932565b8181528460208386010111156129b457600080fd5b816020850160208301376000918101602001919091529392505050565b600080604083850312156129e457600080fd5b8235915060208301356001600160401b03811115612a0157600080fd5b612a0d8582860161295e565b9150509250929050565b60006001600160401b03821115612a3057612a306128f7565b5060051b60200190565b600082601f830112612a4b57600080fd5b81356020612a5882612a17565b604051612a658282612932565b83815260059390931b8501820192828101915086841115612a8557600080fd5b8286015b84811015612aa05780358352918301918301612a89565b509695505050505050565b600080600080600060a08688031215612ac357600080fd5b612acc86612802565b9450612ada60208701612802565b935060408601356001600160401b0380821115612af657600080fd5b612b0289838a01612a3a565b94506060880135915080821115612b1857600080fd5b612b2489838a01612a3a565b93506080880135915080821115612b3a57600080fd5b50612b478882890161295e565b9150509295509295909350565b60008060408385031215612b6757600080fd5b82359150612b7760208401612802565b90509250929050565b60008060408385031215612b9357600080fd5b82356001600160401b0380821115612baa57600080fd5b818501915085601f830112612bbe57600080fd5b81356020612bcb82612a17565b604051612bd88282612932565b83815260059390931b8501820192828101915089841115612bf857600080fd5b948201945b83861015612c1d57612c0e86612802565b82529482019490820190612bfd565b96505086013592505080821115612c3357600080fd5b50612a0d85828601612a3a565b600081518084526020808501945080840160005b83811015612c7057815187529582019590820190600101612c54565b509495945050505050565b6020815260006112d36020830184612c40565b600060208284031215612ca057600080fd5b81356001600160401b03811115612cb657600080fd5b612cc28482850161295e565b949350505050565b600060208284031215612cdc57600080fd5b6112d382612802565b60008083601f840112612cf757600080fd5b5081356001600160401b03811115612d0e57600080fd5b602083019150836020828501011115611f2057600080fd5b600080600060408486031215612d3b57600080fd5b83356001600160401b0380821115612d5257600080fd5b9085019060608288031215612d6657600080fd5b604051612d728161290d565b612d7b83612802565b815260208301356020820152604083013582811115612d9957600080fd5b612da589828601612a3a565b60408301525094506020860135915080821115612dc157600080fd5b50612dce86828701612ce5565b9497909650939450505050565b60ff60f81b8816815260e060208201526000612dfa60e083018961289f565b8281036040840152612e0c818961289f565b606084018890526001600160a01b038716608085015260a0840186905283810360c08501529050612e3d8185612c40565b9a9950505050505050505050565b8035801515811461281957600080fd5b60008060408385031215612e6e57600080fd5b82359150612b7760208401612e4b565b60008060408385031215612e9157600080fd5b612e9a83612802565b9150612b7760208401612e4b565b60008083601f840112612eba57600080fd5b5081356001600160401b03811115612ed157600080fd5b6020830191508360208260051b8501011115611f2057600080fd5b60008060008060408587031215612f0257600080fd5b84356001600160401b0380821115612f1957600080fd5b612f2588838901612ea8565b90965094506020870135915080821115612f3e57600080fd5b50612f4b87828801612ea8565b95989497509550505050565b60008060408385031215612f6a57600080fd5b612f7383612802565b9150612b7760208401612802565b600080600080600060a08688031215612f9957600080fd5b612fa286612802565b9450612fb060208701612802565b9350604086013592506060860135915060808601356001600160401b03811115612fd957600080fd5b612b478882890161295e565b600181811c90821680612ff957607f821691505b60208210810361301957634e487b7160e01b600052602260045260246000fd5b50919050565b6000825161303181846020870161287b565b9190910192915050565b6020808252602e908201527f455243313135353a2063616c6c6572206973206e6f7420746f6b656e206f776e60408201526d195c881bdc88185c1c1c9bdd995960921b606082015260800190565b634e487b7160e01b600052603260045260246000fd5b634e487b7160e01b600052601160045260246000fd5b6000600182016130c7576130c761309f565b5060010190565b815160009082906020808601845b838110156130f8578151855293820193908201906001016130dc565b50929695505050505050565b808201808211156107845761078461309f565b6000808335601e1984360301811261312e57600080fd5b8301803591506001600160401b0382111561314857600080fd5b602001915036819003821315611f2057600080fd5b600080845461316b81612fe5565b600182811680156131835760018114613198576131c7565b60ff19841687528215158302870194506131c7565b8860005260208060002060005b858110156131be5781548a8201529084019082016131a5565b50505082870194505b5050505083516131db81836020880161287b565b01949350505050565b601f82111561090657600081815260208120601f850160051c8101602086101561320b5750805b601f850160051c820191505b8181101561115857828155600101613217565b81516001600160401b03811115613243576132436128f7565b613257816132518454612fe5565b846131e4565b602080601f83116001811461328c57600084156132745750858301515b600019600386901b1c1916600185901b178555611158565b600085815260208120601f198616915b828110156132bb5788860151825594840194600190910190840161329c565b50858210156132d95787850151600019600388901b60f8161c191681555b5050505050600190811b01905550565b60208082526028908201527f455243313135353a2069647320616e6420616d6f756e7473206c656e677468206040820152670dad2e6dac2e8c6d60c31b606082015260800190565b60208082526025908201527f455243313135353a207472616e7366657220746f20746865207a65726f206164604082015264647265737360d81b606082015260800190565b6020808252602a908201527f455243313135353a20696e73756666696369656e742062616c616e636520666f60408201526939103a3930b739b332b960b11b606082015260800190565b6040815260006133d36040830185612c40565b82810360208401526133e58185612c40565b95945050505050565b7f416363657373436f6e74726f6c3a206163636f756e742000000000000000000081526000835161342681601785016020880161287b565b7001034b99036b4b9b9b4b733903937b6329607d1b601791840191820152835161345781602884016020880161287b565b01602801949350505050565b60208082526021908201527f596f7520616c72656164792068617665207468697320616368696576656d656e6040820152601d60fa1b606082015260800190565b600060ff821660ff81036134ba576134ba61309f565b60010192915050565b6001600160a01b0386811682528516602082015260a0604082018190526000906134ef90830186612c40565b82810360608401526135018186612c40565b90508281036080840152613515818561289f565b98975050505050505050565b60006020828403121561353357600080fd5b81516112d381612848565b600060033d1115611edf5760046000803e5060005160e01c90565b600060443d10156135675790565b6040516003193d81016004833e81513d6001600160401b03816024840111818411171561359657505050505090565b82850191508151818111156135ae5750505050505090565b843d87010160208285010111156135c85750505050505090565b6135d760208286010187612932565b509095945050505050565b60208082526028908201527f455243313135353a204552433131353552656365697665722072656a656374656040820152676420746f6b656e7360c01b606082015260800190565b634e487b7160e01b600052602160045260246000fd5b80820281158282048414176107845761078461309f565b6000816136665761366661309f565b506000190190565b60208082526021908201527f455243313135353a206d696e7420746f20746865207a65726f206164647265736040820152607360f81b606082015260800190565b6001600160a01b03868116825285166020820152604081018490526060810183905260a0608082018190526000906136e99083018461289f565b97965050505050505056fe97667070c54ef182b0f5858b034beac1b6f3089aa2d3188bb1e8929f4fa9b9299f2df0fed2c77648de5860a4cc508cd0818c85b8b8a1ab4ceeef8d981c8956a6a2646970667358221220ec68dbbbdba273db2b01545b5e76e94bf83437445341aea81c9e91838dcf43f764736f6c6343000813003397667070c54ef182b0f5858b034beac1b6f3089aa2d3188bb1e8929f4fa9b929",
  "devdoc": {
    "details": "An ERC1155 token contract for minting and managing achievements with URI support.Rubyscore_Achievement can be minted by users with the MINTER_ROLE after proper authorization.Rubyscore_Achievement can have their URIs set by operators with the MINTER_ROLE.Rubyscore_Achievement can be safely transferred with restrictions on certain tokens.",
    "events": {
      "ApprovalForAll(address,address,bool)": {
        "details": "Emitted when `account` grants or revokes permission to `operator` to transfer their tokens, according to `approved`."
      },
      "BaseURISet(string)": {
        "details": "This event is triggered when the contract operator updates the base URI for retrieving metadata associated with tokens. The 'newBaseURI' parameter represents the updated base URI.",
        "params": {
          "newBaseURI": "The new base URI that will be used to construct token metadata URIs."
        }
      },
      "EIP712DomainChanged()": {
        "details": "MAY be emitted to signal that the domain could have changed."
      },
      "Minted(address,uint256,uint256[])": {
        "details": "This event is emitted when new NFTs are created and assigned to a user.It includes the user's address, nonce, and the IDs of the minted NFTs for transparency.",
        "params": {
          "nftIds": "An array of NFT IDs that were minted.",
          "userAddress": "The address of the user receiving the NFTs.",
          "userNonce": "The user's nonce used to prevent replay attacks."
        }
      },
      "PriceUpdated(uint256)": {
        "details": "This event is emitted when the price for mint a token is modified.",
        "params": {
          "newPrice": "The new price for mint."
        }
      },
      "RoleAdminChanged(bytes32,bytes32,bytes32)": {
        "details": "Emitted when `newAdminRole` is set as ``role``'s admin role, replacing `previousAdminRole` `DEFAULT_ADMIN_ROLE` is the starting admin for all roles, despite {RoleAdminChanged} not being emitted signaling this. _Available since v3.1._"
      },
      "RoleGranted(bytes32,address,address)": {
        "details": "Emitted when `account` is granted `role`. `sender` is the account that originated the contract call, an admin role bearer except when using {AccessControl-_setupRole}."
      },
      "RoleRevoked(bytes32,address,address)": {
        "details": "Emitted when `account` is revoked `role`. `sender` is the account that originated the contract call:   - if using `revokeRole`, it is the admin role bearer   - if using `renounceRole`, it is the role bearer (i.e. `account`)"
      },
      "TokenURISet(uint256,string)": {
        "details": "This event is emitted when the URI for a token is modified, providing transparency when metadata URIs are changed for specific tokens.",
        "params": {
          "newTokenURI": "The new URI assigned to the token.",
          "tokenId": "The ID of the token for which the URI is updated."
        }
      },
      "TokenUnlockSet(uint256,bool)": {
        "details": "This event is emitted when the transfer lock status of a specific token is modified.It provides transparency regarding whether a token can be transferred or not.",
        "params": {
          "lock": "The new transfer lock status (true for locked, false for unlocked).",
          "tokenId": "The ID of the token for which the transfer lock status changes."
        }
      },
      "TransferBatch(address,address,address,uint256[],uint256[])": {
        "details": "Equivalent to multiple {TransferSingle} events, where `operator`, `from` and `to` are the same for all transfers."
      },
      "TransferSingle(address,address,address,uint256,uint256)": {
        "details": "Emitted when `value` tokens of token type `id` are transferred from `from` to `to` by `operator`."
      },
      "URI(string,uint256)": {
        "details": "Emitted when the URI for token type `id` changes to `value`, if it is a non-programmatic URI. If an {URI} event was emitted for `id`, the standard https://eips.ethereum.org/EIPS/eip-1155#metadata-extensions[guarantees] that `value` will equal the value returned by {IERC1155MetadataURI-uri}."
      }
    },
    "kind": "dev",
    "methods": {
      "balanceOf(address,uint256)": {
        "details": "See {IERC1155-balanceOf}. Requirements: - `account` cannot be the zero address."
      },
      "balanceOfBatch(address[],uint256[])": {
        "details": "See {IERC1155-balanceOfBatch}. Requirements: - `accounts` and `ids` must have the same length."
      },
      "constructor": {
        "details": "Initializes the contract with roles and settings.It sets the base URI for token metadata to the provided `baseURI`.It grants the DEFAULT_ADMIN_ROLE, OPERATOR_ROLE, and MINTER_ROLE to the specified addresses.It also initializes the contract with EIP712 support and ERC1155 functionality.",
        "params": {
          "admin": "The address of the admin role, which has overall control.",
          "baseURI": "The base URI for token metadata.",
          "minter": "The address of the minter role, authorized to mint achievements and responsible for setting token URIs.",
          "operator": "The address of the operator role, responsible for unlock tokens and set base URI."
        }
      },
      "eip712Domain()": {
        "details": "See {EIP-5267}. _Available since v4.9._"
      },
      "exists(uint256)": {
        "details": "Indicates whether any token exist with a given id, or not."
      },
      "getPrice()": {
        "details": "See {IRubyscore_Achievement}"
      },
      "getRoleAdmin(bytes32)": {
        "details": "Returns the admin role that controls `role`. See {grantRole} and {revokeRole}. To change a role's admin, use {_setRoleAdmin}."
      },
      "getTransferStatus(uint256)": {
        "details": "See {IRubyscore_Achievement}"
      },
      "getUserNonce(address)": {
        "details": "See {IRubyscore_Achievement}"
      },
      "grantRole(bytes32,address)": {
        "details": "Grants `role` to `account`. If `account` had not been already granted `role`, emits a {RoleGranted} event. Requirements: - the caller must have ``role``'s admin role. May emit a {RoleGranted} event."
      },
      "hasRole(bytes32,address)": {
        "details": "Returns `true` if `account` has been granted `role`."
      },
      "isApprovedForAll(address,address)": {
        "details": "See {IERC1155-isApprovedForAll}."
      },
      "renounceRole(bytes32,address)": {
        "details": "Revokes `role` from the calling account. Roles are often managed via {grantRole} and {revokeRole}: this function's purpose is to provide a mechanism for accounts to lose their privileges if they are compromised (such as when a trusted device is misplaced). If the calling account had been revoked `role`, emits a {RoleRevoked} event. Requirements: - the caller must be `account`. May emit a {RoleRevoked} event."
      },
      "revokeRole(bytes32,address)": {
        "details": "Revokes `role` from `account`. If `account` had been granted `role`, emits a {RoleRevoked} event. Requirements: - the caller must have ``role``'s admin role. May emit a {RoleRevoked} event."
      },
      "safeBatchTransferFrom(address,address,uint256[],uint256[],bytes)": {
        "details": "See {IERC1155-safeBatchTransferFrom}."
      },
      "safeMint((address,uint256,uint256[]),bytes)": {
        "details": "See {IRubyscore_Achievement}"
      },
      "safeTransferFrom(address,address,uint256,uint256,bytes)": {
        "details": "See {IERC1155-safeTransferFrom}."
      },
      "setApprovalForAll(address,bool)": {
        "details": "See {IERC1155-setApprovalForAll}."
      },
      "setBaseURI(string)": {
        "details": "See {IRubyscore_Achievement}"
      },
      "setBatchTokenURI(uint256[],string[])": {
        "details": "See {IRubyscore_Achievement}"
      },
      "setPrice(uint256)": {
        "details": "See {IRubyscore_Achievement}"
      },
      "setTokenURI(uint256,string)": {
        "details": "See {IRubyscore_Achievement}"
      },
      "setTransferUnlock(uint256,bool)": {
        "details": "See {IRubyscore_Achievement}"
      },
      "supportsInterface(bytes4)": {
        "details": "See {IRubyscore_Achievement}"
      },
      "tokenURI(uint256)": {
        "details": "See {IRubyscore_Achievement}"
      },
      "totalSupply(uint256)": {
        "details": "Total amount of tokens in with a given id."
      },
      "uri(uint256)": {
        "details": "See {IRubyscore_Achievement}"
      },
      "withdraw()": {
        "details": "See {IRubyscore_Achievement}"
      }
    },
    "stateVariables": {
      "name": {
        "return": "Token name.",
        "returns": {
          "_0": "Token name."
        }
      },
      "symbol": {
        "return": "Token symbol.",
        "returns": {
          "_0": "Token symbol."
        }
      }
    },
    "title": "Rubyscore_Achievement",
    "version": 1
  },
  "userdoc": {
    "events": {
      "BaseURISet(string)": {
        "notice": "Emitted when the base URI for token metadata is updated."
      },
      "Minted(address,uint256,uint256[])": {
        "notice": "Emitted when NFTs are minted for a user."
      },
      "PriceUpdated(uint256)": {
        "notice": "Emitted when the price for a token mint is updated."
      },
      "TokenURISet(uint256,string)": {
        "notice": "Emitted when the URI for a specific token is updated."
      },
      "TokenUnlockSet(uint256,bool)": {
        "notice": "Emitted when the transfer lock status for a token is updated."
      }
    },
    "kind": "user",
    "methods": {
      "constructor": {
        "notice": "Constructor for the Rubyscore_Achievement contract."
      },
      "name()": {
        "notice": "Get token name."
      },
      "symbol()": {
        "notice": "Get token symbol."
      }
    },
    "version": 1
  },
  "storageLayout": {
    "storage": [
      {
        "astId": 504,
        "contract": "contracts/Rubyscore_Achievement.sol:Rubyscore_Achievement",
        "label": "_balances",
        "offset": 0,
        "slot": "0",
        "type": "t_mapping(t_uint256,t_mapping(t_address,t_uint256))"
      },
      {
        "astId": 510,
        "contract": "contracts/Rubyscore_Achievement.sol:Rubyscore_Achievement",
        "label": "_operatorApprovals",
        "offset": 0,
        "slot": "1",
        "type": "t_mapping(t_address,t_mapping(t_address,t_bool))"
      },
      {
        "astId": 512,
        "contract": "contracts/Rubyscore_Achievement.sol:Rubyscore_Achievement",
        "label": "_uri",
        "offset": 0,
        "slot": "2",
        "type": "t_string_storage"
      },
      {
        "astId": 3430,
        "contract": "contracts/Rubyscore_Achievement.sol:Rubyscore_Achievement",
        "label": "_nameFallback",
        "offset": 0,
        "slot": "3",
        "type": "t_string_storage"
      },
      {
        "astId": 3432,
        "contract": "contracts/Rubyscore_Achievement.sol:Rubyscore_Achievement",
        "label": "_versionFallback",
        "offset": 0,
        "slot": "4",
        "type": "t_string_storage"
      },
      {
        "astId": 24,
        "contract": "contracts/Rubyscore_Achievement.sol:Rubyscore_Achievement",
        "label": "_roles",
        "offset": 0,
        "slot": "5",
        "type": "t_mapping(t_bytes32,t_struct(RoleData)19_storage)"
      },
      {
        "astId": 1874,
        "contract": "contracts/Rubyscore_Achievement.sol:Rubyscore_Achievement",
        "label": "_totalSupply",
        "offset": 0,
        "slot": "6",
        "type": "t_mapping(t_uint256,t_uint256)"
      },
      {
        "astId": 2034,
        "contract": "contracts/Rubyscore_Achievement.sol:Rubyscore_Achievement",
        "label": "_baseURI",
        "offset": 0,
        "slot": "7",
        "type": "t_string_storage"
      },
      {
        "astId": 2038,
        "contract": "contracts/Rubyscore_Achievement.sol:Rubyscore_Achievement",
        "label": "_tokenURIs",
        "offset": 0,
        "slot": "8",
        "type": "t_mapping(t_uint256,t_string_storage)"
      },
      {
        "astId": 424,
        "contract": "contracts/Rubyscore_Achievement.sol:Rubyscore_Achievement",
        "label": "_status",
        "offset": 0,
        "slot": "9",
        "type": "t_uint256"
      },
      {
        "astId": 4658,
        "contract": "contracts/Rubyscore_Achievement.sol:Rubyscore_Achievement",
        "label": "price",
        "offset": 0,
        "slot": "10",
        "type": "t_uint256"
      },
      {
        "astId": 4660,
        "contract": "contracts/Rubyscore_Achievement.sol:Rubyscore_Achievement",
        "label": "name",
        "offset": 0,
        "slot": "11",
        "type": "t_string_storage"
      },
      {
        "astId": 4662,
        "contract": "contracts/Rubyscore_Achievement.sol:Rubyscore_Achievement",
        "label": "symbol",
        "offset": 0,
        "slot": "12",
        "type": "t_string_storage"
      },
      {
        "astId": 4666,
        "contract": "contracts/Rubyscore_Achievement.sol:Rubyscore_Achievement",
        "label": "transferUnlock",
        "offset": 0,
        "slot": "13",
        "type": "t_mapping(t_uint256,t_bool)"
      },
      {
        "astId": 4670,
        "contract": "contracts/Rubyscore_Achievement.sol:Rubyscore_Achievement",
        "label": "userNonce",
        "offset": 0,
        "slot": "14",
        "type": "t_mapping(t_address,t_uint256)"
      }
    ],
    "types": {
      "t_address": {
        "encoding": "inplace",
        "label": "address",
        "numberOfBytes": "20"
      },
      "t_bool": {
        "encoding": "inplace",
        "label": "bool",
        "numberOfBytes": "1"
      },
      "t_bytes32": {
        "encoding": "inplace",
        "label": "bytes32",
        "numberOfBytes": "32"
      },
      "t_mapping(t_address,t_bool)": {
        "encoding": "mapping",
        "key": "t_address",
        "label": "mapping(address => bool)",
        "numberOfBytes": "32",
        "value": "t_bool"
      },
      "t_mapping(t_address,t_mapping(t_address,t_bool))": {
        "encoding": "mapping",
        "key": "t_address",
        "label": "mapping(address => mapping(address => bool))",
        "numberOfBytes": "32",
        "value": "t_mapping(t_address,t_bool)"
      },
      "t_mapping(t_address,t_uint256)": {
        "encoding": "mapping",
        "key": "t_address",
        "label": "mapping(address => uint256)",
        "numberOfBytes": "32",
        "value": "t_uint256"
      },
      "t_mapping(t_bytes32,t_struct(RoleData)19_storage)": {
        "encoding": "mapping",
        "key": "t_bytes32",
        "label": "mapping(bytes32 => struct AccessControl.RoleData)",
        "numberOfBytes": "32",
        "value": "t_struct(RoleData)19_storage"
      },
      "t_mapping(t_uint256,t_bool)": {
        "encoding": "mapping",
        "key": "t_uint256",
        "label": "mapping(uint256 => bool)",
        "numberOfBytes": "32",
        "value": "t_bool"
      },
      "t_mapping(t_uint256,t_mapping(t_address,t_uint256))": {
        "encoding": "mapping",
        "key": "t_uint256",
        "label": "mapping(uint256 => mapping(address => uint256))",
        "numberOfBytes": "32",
        "value": "t_mapping(t_address,t_uint256)"
      },
      "t_mapping(t_uint256,t_string_storage)": {
        "encoding": "mapping",
        "key": "t_uint256",
        "label": "mapping(uint256 => string)",
        "numberOfBytes": "32",
        "value": "t_string_storage"
      },
      "t_mapping(t_uint256,t_uint256)": {
        "encoding": "mapping",
        "key": "t_uint256",
        "label": "mapping(uint256 => uint256)",
        "numberOfBytes": "32",
        "value": "t_uint256"
      },
      "t_string_storage": {
        "encoding": "bytes",
        "label": "string",
        "numberOfBytes": "32"
      },
      "t_struct(RoleData)19_storage": {
        "encoding": "inplace",
        "label": "struct AccessControl.RoleData",
        "members": [
          {
            "astId": 16,
            "contract": "contracts/Rubyscore_Achievement.sol:Rubyscore_Achievement",
            "label": "members",
            "offset": 0,
            "slot": "0",
            "type": "t_mapping(t_address,t_bool)"
          },
          {
            "astId": 18,
            "contract": "contracts/Rubyscore_Achievement.sol:Rubyscore_Achievement",
            "label": "adminRole",
            "offset": 0,
            "slot": "1",
            "type": "t_bytes32"
          }
        ],
        "numberOfBytes": "64"
      },
      "t_uint256": {
        "encoding": "inplace",
        "label": "uint256",
        "numberOfBytes": "32"
      }
    }
  }
}