{
  "address": "0x009DBFEe9E155766AF434ED1652CA3769B05E76f",
  "abi": [
    {
      "inputs": [
        {
          "internalType": "address",
          "name": "admin",
          "type": "address"
        },
        {
          "internalType": "address",
          "name": "operator",
          "type": "address"
        }
      ],
      "stateMutability": "nonpayable",
      "type": "constructor"
    },
    {
      "anonymous": false,
      "inputs": [
        {
          "indexed": true,
          "internalType": "address",
          "name": "owner",
          "type": "address"
        },
        {
          "indexed": true,
          "internalType": "address",
          "name": "approved",
          "type": "address"
        },
        {
          "indexed": true,
          "internalType": "uint256",
          "name": "tokenId",
          "type": "uint256"
        }
      ],
      "name": "Approval",
      "type": "event"
    },
    {
      "anonymous": false,
      "inputs": [
        {
          "indexed": true,
          "internalType": "address",
          "name": "owner",
          "type": "address"
        },
        {
          "indexed": true,
          "internalType": "address",
          "name": "operator",
          "type": "address"
        },
        {
          "indexed": false,
          "internalType": "bool",
          "name": "approved",
          "type": "bool"
        }
      ],
      "name": "ApprovalForAll",
      "type": "event"
    },
    {
      "anonymous": false,
      "inputs": [
        {
          "indexed": true,
          "internalType": "string",
          "name": "newBaseExtension",
          "type": "string"
        }
      ],
      "name": "ExtensionUpdated",
      "type": "event"
    },
    {
      "anonymous": false,
      "inputs": [
        {
          "indexed": true,
          "internalType": "address",
          "name": "account",
          "type": "address"
        },
        {
          "indexed": true,
          "internalType": "uint256",
          "name": "tokenId",
          "type": "uint256"
        },
        {
          "indexed": false,
          "internalType": "string",
          "name": "name",
          "type": "string"
        },
        {
          "indexed": true,
          "internalType": "bool",
          "name": "premium",
          "type": "bool"
        }
      ],
      "name": "NameClaimed",
      "type": "event"
    },
    {
      "anonymous": false,
      "inputs": [
        {
          "indexed": false,
          "internalType": "uint256",
          "name": "newPremiumPrice",
          "type": "uint256"
        }
      ],
      "name": "PremiumPriceUpdated",
      "type": "event"
    },
    {
      "anonymous": false,
      "inputs": [
        {
          "indexed": true,
          "internalType": "bytes32",
          "name": "role",
          "type": "bytes32"
        },
        {
          "indexed": true,
          "internalType": "bytes32",
          "name": "previousAdminRole",
          "type": "bytes32"
        },
        {
          "indexed": true,
          "internalType": "bytes32",
          "name": "newAdminRole",
          "type": "bytes32"
        }
      ],
      "name": "RoleAdminChanged",
      "type": "event"
    },
    {
      "anonymous": false,
      "inputs": [
        {
          "indexed": true,
          "internalType": "bytes32",
          "name": "role",
          "type": "bytes32"
        },
        {
          "indexed": true,
          "internalType": "address",
          "name": "account",
          "type": "address"
        },
        {
          "indexed": true,
          "internalType": "address",
          "name": "sender",
          "type": "address"
        }
      ],
      "name": "RoleGranted",
      "type": "event"
    },
    {
      "anonymous": false,
      "inputs": [
        {
          "indexed": true,
          "internalType": "bytes32",
          "name": "role",
          "type": "bytes32"
        },
        {
          "indexed": true,
          "internalType": "address",
          "name": "account",
          "type": "address"
        },
        {
          "indexed": true,
          "internalType": "address",
          "name": "sender",
          "type": "address"
        }
      ],
      "name": "RoleRevoked",
      "type": "event"
    },
    {
      "anonymous": false,
      "inputs": [
        {
          "indexed": true,
          "internalType": "address",
          "name": "from",
          "type": "address"
        },
        {
          "indexed": true,
          "internalType": "address",
          "name": "to",
          "type": "address"
        },
        {
          "indexed": true,
          "internalType": "uint256",
          "name": "tokenId",
          "type": "uint256"
        }
      ],
      "name": "Transfer",
      "type": "event"
    },
    {
      "anonymous": false,
      "inputs": [
        {
          "indexed": true,
          "internalType": "string",
          "name": "newBaseURI",
          "type": "string"
        }
      ],
      "name": "URIUpdated",
      "type": "event"
    },
    {
      "anonymous": false,
      "inputs": [
        {
          "indexed": false,
          "internalType": "uint256",
          "name": "amount",
          "type": "uint256"
        }
      ],
      "name": "Withdrawed",
      "type": "event"
    },
    {
      "inputs": [],
      "name": "DEFAULT_ADMIN_ROLE",
      "outputs": [
        {
          "internalType": "bytes32",
          "name": "",
          "type": "bytes32"
        }
      ],
      "stateMutability": "view",
      "type": "function"
    },
    {
      "inputs": [],
      "name": "OPERATOR_ROLE",
      "outputs": [
        {
          "internalType": "bytes32",
          "name": "",
          "type": "bytes32"
        }
      ],
      "stateMutability": "view",
      "type": "function"
    },
    {
      "inputs": [
        {
          "internalType": "address",
          "name": "to",
          "type": "address"
        },
        {
          "internalType": "uint256",
          "name": "tokenId",
          "type": "uint256"
        }
      ],
      "name": "approve",
      "outputs": [],
      "stateMutability": "nonpayable",
      "type": "function"
    },
    {
      "inputs": [
        {
          "internalType": "address",
          "name": "owner",
          "type": "address"
        }
      ],
      "name": "balanceOf",
      "outputs": [
        {
          "internalType": "uint256",
          "name": "",
          "type": "uint256"
        }
      ],
      "stateMutability": "view",
      "type": "function"
    },
    {
      "inputs": [
        {
          "internalType": "string",
          "name": "name",
          "type": "string"
        }
      ],
      "name": "checkName",
      "outputs": [
        {
          "internalType": "bool",
          "name": "",
          "type": "bool"
        },
        {
          "internalType": "uint256",
          "name": "",
          "type": "uint256"
        }
      ],
      "stateMutability": "view",
      "type": "function"
    },
    {
      "inputs": [
        {
          "internalType": "string",
          "name": "name",
          "type": "string"
        }
      ],
      "name": "claimName",
      "outputs": [
        {
          "internalType": "uint256",
          "name": "tokenId",
          "type": "uint256"
        }
      ],
      "stateMutability": "payable",
      "type": "function"
    },
    {
      "inputs": [
        {
          "internalType": "uint256",
          "name": "tokenId",
          "type": "uint256"
        }
      ],
      "name": "getApproved",
      "outputs": [
        {
          "internalType": "address",
          "name": "",
          "type": "address"
        }
      ],
      "stateMutability": "view",
      "type": "function"
    },
    {
      "inputs": [],
      "name": "getBaseExtension",
      "outputs": [
        {
          "internalType": "string",
          "name": "",
          "type": "string"
        }
      ],
      "stateMutability": "view",
      "type": "function"
    },
    {
      "inputs": [],
      "name": "getBaseURI",
      "outputs": [
        {
          "internalType": "string",
          "name": "",
          "type": "string"
        }
      ],
      "stateMutability": "view",
      "type": "function"
    },
    {
      "inputs": [
        {
          "internalType": "string",
          "name": "name",
          "type": "string"
        }
      ],
      "name": "getIdByName",
      "outputs": [
        {
          "internalType": "uint256",
          "name": "",
          "type": "uint256"
        }
      ],
      "stateMutability": "pure",
      "type": "function"
    },
    {
      "inputs": [
        {
          "internalType": "address",
          "name": "userAddress",
          "type": "address"
        }
      ],
      "name": "getIdByOwner",
      "outputs": [
        {
          "internalType": "uint256",
          "name": "",
          "type": "uint256"
        }
      ],
      "stateMutability": "view",
      "type": "function"
    },
    {
      "inputs": [
        {
          "internalType": "uint256",
          "name": "id",
          "type": "uint256"
        }
      ],
      "name": "getNameById",
      "outputs": [
        {
          "internalType": "string",
          "name": "",
          "type": "string"
        }
      ],
      "stateMutability": "view",
      "type": "function"
    },
    {
      "inputs": [
        {
          "internalType": "address",
          "name": "userAddress",
          "type": "address"
        }
      ],
      "name": "getNameByOwner",
      "outputs": [
        {
          "internalType": "string",
          "name": "",
          "type": "string"
        }
      ],
      "stateMutability": "view",
      "type": "function"
    },
    {
      "inputs": [
        {
          "internalType": "string",
          "name": "name",
          "type": "string"
        }
      ],
      "name": "getOwnerByName",
      "outputs": [
        {
          "internalType": "address",
          "name": "",
          "type": "address"
        }
      ],
      "stateMutability": "view",
      "type": "function"
    },
    {
      "inputs": [],
      "name": "getPremiumPrice",
      "outputs": [
        {
          "internalType": "uint256",
          "name": "",
          "type": "uint256"
        }
      ],
      "stateMutability": "view",
      "type": "function"
    },
    {
      "inputs": [
        {
          "internalType": "address",
          "name": "userAddress",
          "type": "address"
        }
      ],
      "name": "getPremiumStatus",
      "outputs": [
        {
          "internalType": "bool",
          "name": "",
          "type": "bool"
        }
      ],
      "stateMutability": "view",
      "type": "function"
    },
    {
      "inputs": [
        {
          "internalType": "bytes32",
          "name": "role",
          "type": "bytes32"
        }
      ],
      "name": "getRoleAdmin",
      "outputs": [
        {
          "internalType": "bytes32",
          "name": "",
          "type": "bytes32"
        }
      ],
      "stateMutability": "view",
      "type": "function"
    },
    {
      "inputs": [
        {
          "internalType": "bytes32",
          "name": "role",
          "type": "bytes32"
        },
        {
          "internalType": "address",
          "name": "account",
          "type": "address"
        }
      ],
      "name": "grantRole",
      "outputs": [],
      "stateMutability": "nonpayable",
      "type": "function"
    },
    {
      "inputs": [
        {
          "internalType": "address",
          "name": "_user",
          "type": "address"
        }
      ],
      "name": "hasName",
      "outputs": [
        {
          "internalType": "bool",
          "name": "",
          "type": "bool"
        }
      ],
      "stateMutability": "view",
      "type": "function"
    },
    {
      "inputs": [
        {
          "internalType": "bytes32",
          "name": "role",
          "type": "bytes32"
        },
        {
          "internalType": "address",
          "name": "account",
          "type": "address"
        }
      ],
      "name": "hasRole",
      "outputs": [
        {
          "internalType": "bool",
          "name": "",
          "type": "bool"
        }
      ],
      "stateMutability": "view",
      "type": "function"
    },
    {
      "inputs": [
        {
          "internalType": "address",
          "name": "owner",
          "type": "address"
        },
        {
          "internalType": "address",
          "name": "operator",
          "type": "address"
        }
      ],
      "name": "isApprovedForAll",
      "outputs": [
        {
          "internalType": "bool",
          "name": "",
          "type": "bool"
        }
      ],
      "stateMutability": "view",
      "type": "function"
    },
    {
      "inputs": [],
      "name": "name",
      "outputs": [
        {
          "internalType": "string",
          "name": "",
          "type": "string"
        }
      ],
      "stateMutability": "view",
      "type": "function"
    },
    {
      "inputs": [
        {
          "internalType": "uint256",
          "name": "tokenId",
          "type": "uint256"
        }
      ],
      "name": "ownerOf",
      "outputs": [
        {
          "internalType": "address",
          "name": "",
          "type": "address"
        }
      ],
      "stateMutability": "view",
      "type": "function"
    },
    {
      "inputs": [
        {
          "internalType": "bytes32",
          "name": "role",
          "type": "bytes32"
        },
        {
          "internalType": "address",
          "name": "account",
          "type": "address"
        }
      ],
      "name": "renounceRole",
      "outputs": [],
      "stateMutability": "nonpayable",
      "type": "function"
    },
    {
      "inputs": [
        {
          "internalType": "bytes32",
          "name": "role",
          "type": "bytes32"
        },
        {
          "internalType": "address",
          "name": "account",
          "type": "address"
        }
      ],
      "name": "revokeRole",
      "outputs": [],
      "stateMutability": "nonpayable",
      "type": "function"
    },
    {
      "inputs": [
        {
          "internalType": "address",
          "name": "from",
          "type": "address"
        },
        {
          "internalType": "address",
          "name": "to",
          "type": "address"
        },
        {
          "internalType": "uint256",
          "name": "tokenId",
          "type": "uint256"
        }
      ],
      "name": "safeTransferFrom",
      "outputs": [],
      "stateMutability": "nonpayable",
      "type": "function"
    },
    {
      "inputs": [
        {
          "internalType": "address",
          "name": "from",
          "type": "address"
        },
        {
          "internalType": "address",
          "name": "to",
          "type": "address"
        },
        {
          "internalType": "uint256",
          "name": "tokenId",
          "type": "uint256"
        },
        {
          "internalType": "bytes",
          "name": "data",
          "type": "bytes"
        }
      ],
      "name": "safeTransferFrom",
      "outputs": [],
      "stateMutability": "nonpayable",
      "type": "function"
    },
    {
      "inputs": [
        {
          "internalType": "address",
          "name": "operator",
          "type": "address"
        },
        {
          "internalType": "bool",
          "name": "approved",
          "type": "bool"
        }
      ],
      "name": "setApprovalForAll",
      "outputs": [],
      "stateMutability": "nonpayable",
      "type": "function"
    },
    {
      "inputs": [
        {
          "internalType": "bytes4",
          "name": "interfaceId",
          "type": "bytes4"
        }
      ],
      "name": "supportsInterface",
      "outputs": [
        {
          "internalType": "bool",
          "name": "",
          "type": "bool"
        }
      ],
      "stateMutability": "view",
      "type": "function"
    },
    {
      "inputs": [],
      "name": "symbol",
      "outputs": [
        {
          "internalType": "string",
          "name": "",
          "type": "string"
        }
      ],
      "stateMutability": "view",
      "type": "function"
    },
    {
      "inputs": [
        {
          "internalType": "uint256",
          "name": "tokenId",
          "type": "uint256"
        }
      ],
      "name": "tokenURI",
      "outputs": [
        {
          "internalType": "string",
          "name": "",
          "type": "string"
        }
      ],
      "stateMutability": "view",
      "type": "function"
    },
    {
      "inputs": [
        {
          "internalType": "address",
          "name": "from",
          "type": "address"
        },
        {
          "internalType": "address",
          "name": "to",
          "type": "address"
        },
        {
          "internalType": "uint256",
          "name": "tokenId",
          "type": "uint256"
        }
      ],
      "name": "transferFrom",
      "outputs": [],
      "stateMutability": "nonpayable",
      "type": "function"
    },
    {
      "inputs": [
        {
          "internalType": "string",
          "name": "newBaseExtension",
          "type": "string"
        }
      ],
      "name": "updateBaseExtension",
      "outputs": [],
      "stateMutability": "nonpayable",
      "type": "function"
    },
    {
      "inputs": [
        {
          "internalType": "string",
          "name": "newBaseURI",
          "type": "string"
        }
      ],
      "name": "updateBaseURI",
      "outputs": [],
      "stateMutability": "nonpayable",
      "type": "function"
    },
    {
      "inputs": [
        {
          "internalType": "uint256",
          "name": "newPremiumPrice",
          "type": "uint256"
        }
      ],
      "name": "updatePremiumPrice",
      "outputs": [],
      "stateMutability": "nonpayable",
      "type": "function"
    },
    {
      "inputs": [],
      "name": "withdraw",
      "outputs": [],
      "stateMutability": "nonpayable",
      "type": "function"
    }
  ],
  "transactionHash": "0x787a152f33cc685f02ea31c4e5d819f920a021019cf067f5e3cdbd18a8d2f7e8",
  "args": [
    "0x0d0D5Ff3cFeF8B7B2b1cAC6B6C27Fd0846c09361",
    "0x381c031bAA5995D0Cc52386508050Ac947780815"
  ],
  "numDeployments": 1,
  "solcInputHash": "522b0dea825320a3fe69f2a905ebd6bd",
  "bytecode": "0x60e06040526025608081815290620031a860a039600790620000229082620002e1565b503480156200003057600080fd5b50604051620031cd380380620031cd8339810160408190526200005391620003ca565b6040805180820182526011808252705275627973636f72655f50726f66696c6560781b60208084018290528451808601909552918452908301529060006200009c8382620002e1565b506001620000ab8282620002e1565b5050506001600160a01b038216620000ff5760405162461bcd60e51b81526020600482015260126024820152715a65726f206164647265737320636865636b60701b60448201526064015b60405180910390fd5b6001600160a01b0381166200014c5760405162461bcd60e51b81526020600482015260126024820152715a65726f206164647265737320636865636b60701b6044820152606401620000f6565b6200015960008362000197565b62000174600080516020620031888339815191523362000197565b6200018f600080516020620031888339815191528262000197565b505062000402565b60008281526006602090815260408083206001600160a01b038516845290915290205460ff16620002385760008281526006602090815260408083206001600160a01b03851684529091529020805460ff19166001179055620001f73390565b6001600160a01b0316816001600160a01b0316837f2f8788117e7eff1d82e926ec794901d17c78024a50270940304540a733656f0d60405160405180910390a45b5050565b634e487b7160e01b600052604160045260246000fd5b600181811c908216806200026757607f821691505b6020821081036200028857634e487b7160e01b600052602260045260246000fd5b50919050565b601f821115620002dc57600081815260208120601f850160051c81016020861015620002b75750805b601f850160051c820191505b81811015620002d857828155600101620002c3565b5050505b505050565b81516001600160401b03811115620002fd57620002fd6200023c565b62000315816200030e845462000252565b846200028e565b602080601f8311600181146200034d5760008415620003345750858301515b600019600386901b1c1916600185901b178555620002d8565b600085815260208120601f198616915b828110156200037e578886015182559484019460019091019084016200035d565b50858210156200039d5787850151600019600388901b60f8161c191681555b5050505050600190811b01905550565b80516001600160a01b0381168114620003c557600080fd5b919050565b60008060408385031215620003de57600080fd5b620003e983620003ad565b9150620003f960208401620003ad565b90509250929050565b612d7680620004126000396000f3fe60806040526004361061020f5760003560e01c80636352211e11610118578063a217fddf116100a0578063c87b56dd1161006f578063c87b56dd14610624578063d547741f14610644578063e6be48f114610664578063e985e9c514610684578063f5b541a6146106cd57600080fd5b8063a217fddf146105af578063a22cb465146105c4578063aeda352b146105e4578063b88d4fde1461060457600080fd5b806376101971116100e7578063761019711461050157806381d78a901461053a57806391d148541461055a578063931688cb1461057a57806395d89b411461059a57600080fd5b80636352211e1461048c578063674ddb08146104ac57806370a08231146104cc578063714c5398146104ec57600080fd5b8063248a9ca31161019b5780633ccfd60b1161016a5780633ccfd60b1461040f57806342842e0e146104245780634695bfe61461044457806349394b0d1461046457806354c25e4b1461047957600080fd5b8063248a9ca31461037f5780632f2ff15d146103af5780633232c10b146103cf57806336568abe146103ef57600080fd5b8063095ea7b3116101e2578063095ea7b3146102b857806310b50626146102da5780631367944b146103085780631400d1e41461032857806323b872dd1461035f57600080fd5b806301ffc9a714610214578063022503071461024957806306fdde031461026b578063081812fc14610280575b600080fd5b34801561022057600080fd5b5061023461022f36600461241c565b6106ef565b60405190151581526020015b60405180910390f35b34801561025557600080fd5b5061025e610700565b6040516102409190612489565b34801561027757600080fd5b5061025e610792565b34801561028c57600080fd5b506102a061029b36600461249c565b6107a1565b6040516001600160a01b039091168152602001610240565b3480156102c457600080fd5b506102d86102d33660046124d1565b6107c8565b005b3480156102e657600080fd5b506102fa6102f53660046124fb565b6108e2565b604051908152602001610240565b34801561031457600080fd5b506102fa610323366004612516565b6109f5565b34801561033457600080fd5b50610348610343366004612516565b610a36565b604080519215158352602083019190915201610240565b34801561036b57600080fd5b506102d861037a366004612588565b610b20565b34801561038b57600080fd5b506102fa61039a36600461249c565b60009081526006602052604090206001015490565b3480156103bb57600080fd5b506102d86103ca3660046125c4565b610b51565b3480156103db57600080fd5b506102d86103ea36600461267c565b610b76565b3480156103fb57600080fd5b506102d861040a3660046125c4565b610bdd565b34801561041b57600080fd5b506102d8610c5b565b34801561043057600080fd5b506102d861043f366004612588565b610d7b565b34801561045057600080fd5b506102a061045f366004612516565b610d96565b34801561047057600080fd5b506009546102fa565b6102fa610487366004612516565b610e02565b34801561049857600080fd5b506102a06104a736600461249c565b611073565b3480156104b857600080fd5b5061025e6104c73660046124fb565b6110d3565b3480156104d857600080fd5b506102fa6104e73660046124fb565b6111d1565b3480156104f857600080fd5b5061025e611257565b34801561050d57600080fd5b5061023461051c3660046124fb565b6001600160a01b03166000908152600a602052604090205460ff1690565b34801561054657600080fd5b5061025e61055536600461249c565b611266565b34801561056657600080fd5b506102346105753660046125c4565b611341565b34801561058657600080fd5b506102d861059536600461267c565b61136c565b3480156105a657600080fd5b5061025e6113d3565b3480156105bb57600080fd5b506102fa600081565b3480156105d057600080fd5b506102d86105df3660046126c5565b6113e2565b3480156105f057600080fd5b506102346105ff3660046124fb565b6113ed565b34801561061057600080fd5b506102d861061f366004612701565b61141d565b34801561063057600080fd5b5061025e61063f36600461249c565b611455565b34801561065057600080fd5b506102d861065f3660046125c4565b6114e1565b34801561067057600080fd5b506102d861067f36600461249c565b611506565b34801561069057600080fd5b5061023461069f36600461277d565b6001600160a01b03918216600090815260056020908152604080832093909416825291909152205460ff1690565b3480156106d957600080fd5b506102fa600080516020612d2183398151915281565b60006106fa8261155a565b92915050565b60606008805461070f906127a7565b80601f016020809104026020016040519081016040528092919081815260200182805461073b906127a7565b80156107885780601f1061075d57610100808354040283529160200191610788565b820191906000526020600020905b81548152906001019060200180831161076b57829003601f168201915b5050505050905090565b60606000805461070f906127a7565b60006107ac8261157f565b506000908152600460205260409020546001600160a01b031690565b60006107d382611073565b9050806001600160a01b0316836001600160a01b0316036108455760405162461bcd60e51b815260206004820152602160248201527f4552433732313a20617070726f76616c20746f2063757272656e74206f776e656044820152603960f91b60648201526084015b60405180910390fd5b336001600160a01b03821614806108615750610861813361069f565b6108d35760405162461bcd60e51b815260206004820152603d60248201527f4552433732313a20617070726f76652063616c6c6572206973206e6f7420746f60448201527f6b656e206f776e6572206f7220617070726f76656420666f7220616c6c000000606482015260840161083c565b6108dd83836115d2565b505050565b6000806108ee836111d1565b116109375760405162461bcd60e51b81526020600482015260196024820152785573657220646f6573206e6f7420686176652061206e616d6560381b604482015260640161083c565b6001600160a01b0382166000908152600b6020526040812080546109e2919061095f906127a7565b80601f016020809104026020016040519081016040528092919081815260200182805461098b906127a7565b80156109d85780601f106109ad576101008083540402835291602001916109d8565b820191906000526020600020905b8154815290600101906020018083116109bb57829003601f168201915b5050505050611640565b5090506109ee81611827565b9392505050565b60006109ee83838080601f01602080910402602001604051908101604052809392919081815260200183838082843760009201919091525061185892505050565b600080600080610a7b86868080601f01602080910402602001604051908101604052809392919081815260200183838082843760009201919091525061164092505050565b9150915080610abe5760405162461bcd60e51b815260206004820152600f60248201526e13985b59481a5cc81a5b9d985b1a59608a1b604482015260640161083c565b6000610ac983611827565b9050610ad4816118da565b15610b145760405162461bcd60e51b815260206004820152601060248201526f13985b59481a5cc81bd8d8dd5c1a595960821b604482015260640161083c565b90969095509350505050565b610b2a33826118f7565b610b465760405162461bcd60e51b815260040161083c906127e1565b6108dd838383611975565b600082815260066020526040902060010154610b6c816119af565b6108dd83836119b9565b600080516020612d21833981519152610b8e816119af565b6008610b9a838261287c565b5081604051610ba9919061293c565b604051908190038120907fea0538491ac80faeb16aa130764de632747573749c3a6e34f55c28bee697814990600090a25050565b6001600160a01b0381163314610c4d5760405162461bcd60e51b815260206004820152602f60248201527f416363657373436f6e74726f6c3a2063616e206f6e6c792072656e6f756e636560448201526e103937b632b9903337b91039b2b63360891b606482015260840161083c565b610c578282611a3f565b5050565b6000610c66816119af565b4780610cb45760405162461bcd60e51b815260206004820152601760248201527f5a65726f20616d6f756e7420746f207769746864726177000000000000000000604482015260640161083c565b604051600090339083908381818185875af1925050503d8060008114610cf6576040519150601f19603f3d011682016040523d82523d6000602084013e610cfb565b606091505b5050905080610d435760405162461bcd60e51b81526020600482015260146024820152732330b4b632b2103a379039b2b7321022ba3432b960611b604482015260640161083c565b6040518281527f11e9d9f7a772129e26cb0560945658c96b41c42ac6712d233e20c894bfcd00fd9060200160405180910390a1505050565b6108dd8383836040518060200160405280600081525061141d565b600080610dd884848080601f01602080910402602001604051908101604052809392919081815260200183838082843760009201919091525061185892505050565b9050610de3816118da565b610df15760009150506106fa565b610dfa81611073565b949350505050565b60006009543403610ea657336000818152600a60205260409020805460ff19166001179055610e30906113ed565b15610e4f57610e3e336108e2565b90508115610e5457610e4f81611aa6565b610fb2565b336000818152600b6020526040908190209051600192849290917f489d65f3c73c43c0553ae2d3185608b8bf9e5110569a99128fd18cec88b9da8d91610e9991612958565b60405180910390a46106fa565b610eaf336113ed565b15610eef5760405162461bcd60e51b815260206004820152601060248201526f416c726561647920686173206e616d6560801b604482015260640161083c565b3415610f305760405162461bcd60e51b815260206004820152601060248201526f15dc9bdb99c811551208185b5bdd5b9d60821b604482015260640161083c565b6006610f7184848080601f016020809104026020016040519081016040528093929190818152602001838380828437600092019190915250611b3b92505050565b11610fb25760405162461bcd60e51b81526020600482015260116024820152700aee4dedcce40dcc2daca40d8cadccee8d607b1b604482015260640161083c565b610ff183838080601f01602080910402602001604051908101604052809392919081815260200183838082843760009201919091525061185892505050565b9050610ffd3382611c3e565b336000908152600b602052604090206110178385836129e3565b50336000818152600a60205260409081902054905160ff90911615159183917f489d65f3c73c43c0553ae2d3185608b8bf9e5110569a99128fd18cec88b9da8d906110659088908890612aa4565b60405180910390a492915050565b6000818152600260205260408120546001600160a01b0316806106fa5760405162461bcd60e51b8152602060048201526018602482015277115490cdcc8c4e881a5b9d985b1a59081d1bdad95b88125160421b604482015260640161083c565b606060006110e0836111d1565b116111295760405162461bcd60e51b81526020600482015260196024820152785573657220646f6573206e6f7420686176652061206e616d6560381b604482015260640161083c565b6001600160a01b0382166000908152600b60205260409020805461114c906127a7565b80601f0160208091040260200160405190810160405280929190818152602001828054611178906127a7565b80156111c55780601f1061119a576101008083540402835291602001916111c5565b820191906000526020600020905b8154815290600101906020018083116111a857829003601f168201915b50505050509050919050565b60006001600160a01b03821661123b5760405162461bcd60e51b815260206004820152602960248201527f4552433732313a2061646472657373207a65726f206973206e6f7420612076616044820152683634b21037bbb732b960b91b606482015260840161083c565b506001600160a01b031660009081526003602052604090205490565b60606007805461070f906127a7565b6060611271826118da565b61128957505060408051602081019091526000815290565b600061129483611073565b6001600160a01b0381166000908152600b602052604090208054919250906112bb906127a7565b80601f01602080910402602001604051908101604052809291908181526020018280546112e7906127a7565b80156113345780601f1061130957610100808354040283529160200191611334565b820191906000526020600020905b81548152906001019060200180831161131757829003601f168201915b5050505050915050919050565b60009182526006602090815260408084206001600160a01b0393909316845291905290205460ff1690565b600080516020612d21833981519152611384816119af565b6007611390838261287c565b508160405161139f919061293c565b604051908190038120907fe3afa94108b5f5e82e5f6e539d161ff4b5402a85f696c67b9768ec3ae54ce36690600090a25050565b60606001805461070f906127a7565b610c57338383611c58565b6001600160a01b0381166000908152600b602052604081208054829190611413906127a7565b9050119050919050565b61142733836118f7565b6114435760405162461bcd60e51b815260040161083c906127e1565b61144f84848484611d26565b50505050565b6060611460826118da565b6114ac5760405162461bcd60e51b815260206004820152601f60248201527f55524920717565727920666f72206e6f6e6578697374656e7420746f6b656e00604482015260640161083c565b60076114b783611d59565b60086040516020016114cb93929190612b46565b6040516020818303038152906040529050919050565b6000828152600660205260409020600101546114fc816119af565b6108dd8383611a3f565b600080516020612d2183398151915261151e816119af565b60098290556040518281527f71d774f51a8ca4c9c8d8d4b9c3a71594870eec40b74b08d2064d86f7467aca709060200160405180910390a15050565b60006001600160e01b03198216637965db0b60e01b14806106fa57506106fa82611dec565b611588816118da565b6115cf5760405162461bcd60e51b8152602060048201526018602482015277115490cdcc8c4e881a5b9d985b1a59081d1bdad95b88125160421b604482015260640161083c565b50565b600081815260046020526040902080546001600160a01b0319166001600160a01b038416908117909155819061160782611073565b6001600160a01b03167f8c5be1e5ebec7d5bd14f71427d1e84f3dd0314c0f7b2291e5b200ac8c7c3b92560405160405180910390a45050565b606060008061164e84611b3b565b9050600281116116945760405162461bcd60e51b815260206004820152601160248201527013985b59481a5cc81d1bdbc81cda1bdc9d607a1b604482015260640161083c565b601581106116d75760405162461bcd60e51b815260206004820152601060248201526f4e616d6520697320746f6f206c6f6e6760801b604482015260640161083c565b8351849060009067ffffffffffffffff8111156116f6576116f66125f0565b6040519080825280601f01601f191660200182016040528015611720576020820181803683370190505b50905060005b825181101561181a57600083828151811061174357611743612b79565b016020015160f81c9050604181108015906117625750605a8160ff1611155b1561179c578060200160f81b83838151811061178057611780612b79565b60200101906001600160f81b031916908160001a905350611811565b6117a581611e3c565b6117ca5760006040518060200160405280600081525090965096505050505050915091565b8382815181106117dc576117dc612b79565b602001015160f81c60f81b8383815181106117f9576117f9612b79565b60200101906001600160f81b031916908160001a9053505b50600101611726565b5095600195509350505050565b60008160405160200161183a919061293c565b60408051601f19818403018152919052805160209091012092915050565b600080600061186684611640565b91509150806118a95760405162461bcd60e51b815260206004820152600f60248201526e13985b59481a5cc81a5b9d985b1a59608a1b604482015260640161083c565b816040516020016118ba919061293c565b60408051601f198184030181529190528051602090910120949350505050565b6000908152600260205260409020546001600160a01b0316151590565b60008061190383611073565b9050806001600160a01b0316846001600160a01b0316148061194a57506001600160a01b0380821660009081526005602090815260408083209388168352929052205460ff165b80610dfa5750836001600160a01b0316611963846107a1565b6001600160a01b031614949350505050565b60405162461bcd60e51b815260206004820152600f60248201526e4f6e6c7920466f7220796f7521212160881b604482015260640161083c565b6115cf8133611e86565b6119c38282611341565b610c575760008281526006602090815260408083206001600160a01b03851684529091529020805460ff191660011790556119fb3390565b6001600160a01b0316816001600160a01b0316837f2f8788117e7eff1d82e926ec794901d17c78024a50270940304540a733656f0d60405160405180910390a45050565b611a498282611341565b15610c575760008281526006602090815260408083206001600160a01b0385168085529252808320805460ff1916905551339285917ff6391f5c32d9c69d2a47ea670b442974b53935d1edc7fd64eb21e047a839171b9190a45050565b6000611ab182611073565b9050611abc82611073565b600083815260046020908152604080832080546001600160a01b03199081169091556001600160a01b0385168085526003845282852080546000190190558785526002909352818420805490911690555192935084927fddf252ad1be2c89b69c2b068fc378daa952ba7f163c4a11628f55a4df523b3ef908390a45050565b8051600090819081905b80821015611c35576000858381518110611b6157611b61612b79565b01602001516001600160f81b0319169050600160ff1b811015611b9057611b89600184612ba5565b9250611c22565b600760fd1b6001600160f81b031982161015611bb157611b89600284612ba5565b600f60fc1b6001600160f81b031982161015611bd257611b89600384612ba5565b601f60fb1b6001600160f81b031982161015611bf357611b89600484612ba5565b603f60fa1b6001600160f81b031982161015611c1457611b89600584612ba5565b611c1f600684612ba5565b92505b5082611c2d81612bb8565b935050611b45565b50909392505050565b610c57828260405180602001604052806000815250611edf565b816001600160a01b0316836001600160a01b031603611cb95760405162461bcd60e51b815260206004820152601960248201527f4552433732313a20617070726f766520746f2063616c6c657200000000000000604482015260640161083c565b6001600160a01b03838116600081815260056020908152604080832094871680845294825291829020805460ff191686151590811790915591519182527f17307eab39ab6107e8899845ad3d59bd9653f200f220920489ca2b5937696c31910160405180910390a3505050565b611d31848484611975565b611d3d84848484611f12565b61144f5760405162461bcd60e51b815260040161083c90612bd1565b60606000611d6683612013565b600101905060008167ffffffffffffffff811115611d8657611d866125f0565b6040519080825280601f01601f191660200182016040528015611db0576020820181803683370190505b5090508181016020015b600019016f181899199a1a9b1b9c1cb0b131b232b360811b600a86061a8153600a8504945084611dba57509392505050565b60006001600160e01b031982166380ac58cd60e01b1480611e1d57506001600160e01b03198216635b5e139f60e01b145b806106fa57506301ffc9a760e01b6001600160e01b03198316146106fa565b6000605f8260ff1610158015611e565750607a8260ff1611155b80611e74575060218260ff1610158015611e74575060408260ff1611155b80156106fa57505060ff166020141590565b611e908282611341565b610c5757611e9d816120eb565b611ea88360206120fd565b604051602001611eb9929190612c23565b60408051601f198184030181529082905262461bcd60e51b825261083c91600401612489565b611ee98383612299565b611ef66000848484611f12565b6108dd5760405162461bcd60e51b815260040161083c90612bd1565b60006001600160a01b0384163b1561200857604051630a85bd0160e11b81526001600160a01b0385169063150b7a0290611f56903390899088908890600401612c98565b6020604051808303816000875af1925050508015611f91575060408051601f3d908101601f19168201909252611f8e91810190612cd5565b60015b611fee573d808015611fbf576040519150601f19603f3d011682016040523d82523d6000602084013e611fc4565b606091505b508051600003611fe65760405162461bcd60e51b815260040161083c90612bd1565b805181602001fd5b6001600160e01b031916630a85bd0160e11b149050610dfa565b506001949350505050565b60008072184f03e93ff9f4daa797ed6e38ed64bf6a1f0160401b83106120525772184f03e93ff9f4daa797ed6e38ed64bf6a1f0160401b830492506040015b6d04ee2d6d415b85acef8100000000831061207e576d04ee2d6d415b85acef8100000000830492506020015b662386f26fc10000831061209c57662386f26fc10000830492506010015b6305f5e10083106120b4576305f5e100830492506008015b61271083106120c857612710830492506004015b606483106120da576064830492506002015b600a83106106fa5760010192915050565b60606106fa6001600160a01b03831660145b6060600061210c836002612cf2565b612117906002612ba5565b67ffffffffffffffff81111561212f5761212f6125f0565b6040519080825280601f01601f191660200182016040528015612159576020820181803683370190505b509050600360fc1b8160008151811061217457612174612b79565b60200101906001600160f81b031916908160001a905350600f60fb1b816001815181106121a3576121a3612b79565b60200101906001600160f81b031916908160001a90535060006121c7846002612cf2565b6121d2906001612ba5565b90505b600181111561224a576f181899199a1a9b1b9c1cb0b131b232b360811b85600f166010811061220657612206612b79565b1a60f81b82828151811061221c5761221c612b79565b60200101906001600160f81b031916908160001a90535060049490941c9361224381612d09565b90506121d5565b5083156109ee5760405162461bcd60e51b815260206004820181905260248201527f537472696e67733a20686578206c656e67746820696e73756666696369656e74604482015260640161083c565b6001600160a01b0382166122ef5760405162461bcd60e51b815260206004820181905260248201527f4552433732313a206d696e7420746f20746865207a65726f2061646472657373604482015260640161083c565b6122f8816118da565b156123455760405162461bcd60e51b815260206004820152601c60248201527f4552433732313a20746f6b656e20616c7265616479206d696e74656400000000604482015260640161083c565b61234e816118da565b1561239b5760405162461bcd60e51b815260206004820152601c60248201527f4552433732313a20746f6b656e20616c7265616479206d696e74656400000000604482015260640161083c565b6001600160a01b038216600081815260036020908152604080832080546001019055848352600290915280822080546001600160a01b0319168417905551839291907fddf252ad1be2c89b69c2b068fc378daa952ba7f163c4a11628f55a4df523b3ef908290a45050565b6001600160e01b0319811681146115cf57600080fd5b60006020828403121561242e57600080fd5b81356109ee81612406565b60005b8381101561245457818101518382015260200161243c565b50506000910152565b60008151808452612475816020860160208601612439565b601f01601f19169290920160200192915050565b6020815260006109ee602083018461245d565b6000602082840312156124ae57600080fd5b5035919050565b80356001600160a01b03811681146124cc57600080fd5b919050565b600080604083850312156124e457600080fd5b6124ed836124b5565b946020939093013593505050565b60006020828403121561250d57600080fd5b6109ee826124b5565b6000806020838503121561252957600080fd5b823567ffffffffffffffff8082111561254157600080fd5b818501915085601f83011261255557600080fd5b81358181111561256457600080fd5b86602082850101111561257657600080fd5b60209290920196919550909350505050565b60008060006060848603121561259d57600080fd5b6125a6846124b5565b92506125b4602085016124b5565b9150604084013590509250925092565b600080604083850312156125d757600080fd5b823591506125e7602084016124b5565b90509250929050565b634e487b7160e01b600052604160045260246000fd5b600067ffffffffffffffff80841115612621576126216125f0565b604051601f8501601f19908116603f01168101908282118183101715612649576126496125f0565b8160405280935085815286868601111561266257600080fd5b858560208301376000602087830101525050509392505050565b60006020828403121561268e57600080fd5b813567ffffffffffffffff8111156126a557600080fd5b8201601f810184136126b657600080fd5b610dfa84823560208401612606565b600080604083850312156126d857600080fd5b6126e1836124b5565b9150602083013580151581146126f657600080fd5b809150509250929050565b6000806000806080858703121561271757600080fd5b612720856124b5565b935061272e602086016124b5565b925060408501359150606085013567ffffffffffffffff81111561275157600080fd5b8501601f8101871361276257600080fd5b61277187823560208401612606565b91505092959194509250565b6000806040838503121561279057600080fd5b612799836124b5565b91506125e7602084016124b5565b600181811c908216806127bb57607f821691505b6020821081036127db57634e487b7160e01b600052602260045260246000fd5b50919050565b6020808252602d908201527f4552433732313a2063616c6c6572206973206e6f7420746f6b656e206f776e6560408201526c1c881bdc88185c1c1c9bdd9959609a1b606082015260800190565b601f8211156108dd57600081815260208120601f850160051c810160208610156128555750805b601f850160051c820191505b8181101561287457828155600101612861565b505050505050565b815167ffffffffffffffff811115612896576128966125f0565b6128aa816128a484546127a7565b8461282e565b602080601f8311600181146128df57600084156128c75750858301515b600019600386901b1c1916600185901b178555612874565b600085815260208120601f198616915b8281101561290e578886015182559484019460019091019084016128ef565b508582101561292c5787850151600019600388901b60f8161c191681555b5050505050600190811b01905550565b6000825161294e818460208701612439565b9190910192915050565b600060208083526000845461296c816127a7565b8084870152604060018084166000811461298d57600181146129a7576129d5565b60ff1985168984015283151560051b8901830195506129d5565b896000528660002060005b858110156129cd5781548b82018601529083019088016129b2565b8a0184019650505b509398975050505050505050565b67ffffffffffffffff8311156129fb576129fb6125f0565b612a0f83612a0983546127a7565b8361282e565b6000601f841160018114612a435760008515612a2b5750838201355b600019600387901b1c1916600186901b178355612a9d565b600083815260209020601f19861690835b82811015612a745786850135825560209485019460019092019101612a54565b5086821015612a915760001960f88860031b161c19848701351681555b505060018560011b0183555b5050505050565b60208152816020820152818360408301376000818301604090810191909152601f909201601f19160101919050565b60008154612ae0816127a7565b60018281168015612af85760018114612b0d57612b3c565b60ff1984168752821515830287019450612b3c565b8560005260208060002060005b85811015612b335781548a820152908401908201612b1a565b50505082870194505b5050505092915050565b6000612b528286612ad3565b8451612b62818360208901612439565b612b6e81830186612ad3565b979650505050505050565b634e487b7160e01b600052603260045260246000fd5b634e487b7160e01b600052601160045260246000fd5b808201808211156106fa576106fa612b8f565b600060018201612bca57612bca612b8f565b5060010190565b60208082526032908201527f4552433732313a207472616e7366657220746f206e6f6e20455243373231526560408201527131b2b4bb32b91034b6b83632b6b2b73a32b960711b606082015260800190565b7f416363657373436f6e74726f6c3a206163636f756e7420000000000000000000815260008351612c5b816017850160208801612439565b7001034b99036b4b9b9b4b733903937b6329607d1b6017918401918201528351612c8c816028840160208801612439565b01602801949350505050565b6001600160a01b0385811682528416602082015260408101839052608060608201819052600090612ccb9083018461245d565b9695505050505050565b600060208284031215612ce757600080fd5b81516109ee81612406565b80820281158282048414176106fa576106fa612b8f565b600081612d1857612d18612b8f565b50600019019056fe97667070c54ef182b0f5858b034beac1b6f3089aa2d3188bb1e8929f4fa9b929a264697066735822122066a279c678b7c9de209ca7881345645da1ac51a81408de74e234f525ba0bcb9564736f6c6343000813003397667070c54ef182b0f5858b034beac1b6f3089aa2d3188bb1e8929f4fa9b92968747470733a2f2f6170692e7275627973636f72652e696f2f6e66742f70726f66696c652f",
  "devdoc": {
    "details": "Rubyscore_Profile is an SBT ERC721-based smart contract for claiming and managing user names. Users can claim unique names represented by ERC721 tokens. Names are normalized to lowercase and can consist of lowercase letters and selected special characters. The contract is NOT upgradeable and has role-based access control.",
    "events": {
      "Approval(address,address,uint256)": {
        "details": "Emitted when `owner` enables `approved` to manage the `tokenId` token."
      },
      "ApprovalForAll(address,address,bool)": {
        "details": "Emitted when `owner` enables or disables (`approved`) `operator` to manage all of its assets."
      },
      "ExtensionUpdated(string)": {
        "params": {
          "newBaseExtension": "The new base extension used for token metadata files."
        }
      },
      "NameClaimed(address,uint256,string,bool)": {
        "params": {
          "account": "The address of the account claiming the name.",
          "name": "The name that was successfully claimed.",
          "premium": "The premium status of name that was successfully claimed.",
          "tokenId": "The unique token ID associated with the claimed name."
        }
      },
      "RoleAdminChanged(bytes32,bytes32,bytes32)": {
        "details": "Emitted when `newAdminRole` is set as ``role``'s admin role, replacing `previousAdminRole` `DEFAULT_ADMIN_ROLE` is the starting admin for all roles, despite {RoleAdminChanged} not being emitted signaling this. _Available since v3.1._"
      },
      "RoleGranted(bytes32,address,address)": {
        "details": "Emitted when `account` is granted `role`. `sender` is the account that originated the contract call, an admin role bearer except when using {AccessControl-_setupRole}."
      },
      "RoleRevoked(bytes32,address,address)": {
        "details": "Emitted when `account` is revoked `role`. `sender` is the account that originated the contract call:   - if using `revokeRole`, it is the admin role bearer   - if using `renounceRole`, it is the role bearer (i.e. `account`)"
      },
      "Transfer(address,address,uint256)": {
        "details": "Emitted when `tokenId` token is transferred from `from` to `to`."
      },
      "URIUpdated(string)": {
        "params": {
          "newBaseURI": "The new base URI used to construct token metadata URIs."
        }
      }
    },
    "kind": "dev",
    "methods": {
      "approve(address,uint256)": {
        "details": "See {IERC721-approve}."
      },
      "balanceOf(address)": {
        "details": "See {IERC721-balanceOf}."
      },
      "checkName(string)": {
        "details": "See {IRubyscore_Profile}"
      },
      "claimName(string)": {
        "details": "See {IRubyscore_Profile}"
      },
      "constructor": {
        "details": "Constructor to initialize the contract with admin and operator addresses.",
        "params": {
          "admin": "Address of the contract admin.",
          "operator": "Address of the contract operator."
        }
      },
      "getApproved(uint256)": {
        "details": "See {IERC721-getApproved}."
      },
      "getBaseExtension()": {
        "details": "See {IRubyscore_Profile}"
      },
      "getBaseURI()": {
        "details": "See {IRubyscore_Profile}"
      },
      "getIdByName(string)": {
        "details": "See {IRubyscore_Profile}"
      },
      "getIdByOwner(address)": {
        "details": "See {IRubyscore_Profile}"
      },
      "getNameById(uint256)": {
        "details": "See {IRubyscore_Profile}"
      },
      "getNameByOwner(address)": {
        "details": "See {IRubyscore_Profile}"
      },
      "getOwnerByName(string)": {
        "details": "See {IRubyscore_Profile}"
      },
      "getPremiumPrice()": {
        "details": "See {IRubyscore_Profile}"
      },
      "getPremiumStatus(address)": {
        "details": "See {IRubyscore_Profile}"
      },
      "getRoleAdmin(bytes32)": {
        "details": "Returns the admin role that controls `role`. See {grantRole} and {revokeRole}. To change a role's admin, use {_setRoleAdmin}."
      },
      "grantRole(bytes32,address)": {
        "details": "Grants `role` to `account`. If `account` had not been already granted `role`, emits a {RoleGranted} event. Requirements: - the caller must have ``role``'s admin role. May emit a {RoleGranted} event."
      },
      "hasName(address)": {
        "details": "See {IRubyscore_Profile}"
      },
      "hasRole(bytes32,address)": {
        "details": "Returns `true` if `account` has been granted `role`."
      },
      "isApprovedForAll(address,address)": {
        "details": "See {IERC721-isApprovedForAll}."
      },
      "name()": {
        "details": "See {IERC721Metadata-name}."
      },
      "ownerOf(uint256)": {
        "details": "See {IERC721-ownerOf}."
      },
      "renounceRole(bytes32,address)": {
        "details": "Revokes `role` from the calling account. Roles are often managed via {grantRole} and {revokeRole}: this function's purpose is to provide a mechanism for accounts to lose their privileges if they are compromised (such as when a trusted device is misplaced). If the calling account had been revoked `role`, emits a {RoleRevoked} event. Requirements: - the caller must be `account`. May emit a {RoleRevoked} event."
      },
      "revokeRole(bytes32,address)": {
        "details": "Revokes `role` from `account`. If `account` had been granted `role`, emits a {RoleRevoked} event. Requirements: - the caller must have ``role``'s admin role. May emit a {RoleRevoked} event."
      },
      "safeTransferFrom(address,address,uint256)": {
        "details": "See {IERC721-safeTransferFrom}."
      },
      "safeTransferFrom(address,address,uint256,bytes)": {
        "details": "See {IERC721-safeTransferFrom}."
      },
      "setApprovalForAll(address,bool)": {
        "details": "See {IERC721-setApprovalForAll}."
      },
      "supportsInterface(bytes4)": {
        "details": "See {IRubyscore_Profile}"
      },
      "symbol()": {
        "details": "See {IERC721Metadata-symbol}."
      },
      "tokenURI(uint256)": {
        "details": "See {IRubyscore_Profile}"
      },
      "transferFrom(address,address,uint256)": {
        "details": "See {IERC721-transferFrom}."
      },
      "updateBaseExtension(string)": {
        "details": "See {IRubyscore_Profile}"
      },
      "updateBaseURI(string)": {
        "details": "See {IRubyscore_Profile}"
      },
      "updatePremiumPrice(uint256)": {
        "details": "See {IRubyscore_Profile}"
      },
      "withdraw()": {
        "details": "See {IRubyscore_Profile}"
      }
    },
    "title": "Rubyscore_Profile",
    "version": 1
  },
  "userdoc": {
    "events": {
      "ExtensionUpdated(string)": {
        "notice": "Emitted when the base extension for token metadata is updated."
      },
      "NameClaimed(address,uint256,string,bool)": {
        "notice": "Emitted when a user successfully claims a unique name as an NFT."
      },
      "URIUpdated(string)": {
        "notice": "Emitted when the base URI for token metadata is updated."
      }
    },
    "kind": "user",
    "methods": {},
    "version": 1
  },
  "storageLayout": {
    "storage": [
      {
        "astId": 414,
        "contract": "contracts/Rubyscore_Profile.sol:Rubyscore_Profile",
        "label": "_name",
        "offset": 0,
        "slot": "0",
        "type": "t_string_storage"
      },
      {
        "astId": 416,
        "contract": "contracts/Rubyscore_Profile.sol:Rubyscore_Profile",
        "label": "_symbol",
        "offset": 0,
        "slot": "1",
        "type": "t_string_storage"
      },
      {
        "astId": 420,
        "contract": "contracts/Rubyscore_Profile.sol:Rubyscore_Profile",
        "label": "_owners",
        "offset": 0,
        "slot": "2",
        "type": "t_mapping(t_uint256,t_address)"
      },
      {
        "astId": 424,
        "contract": "contracts/Rubyscore_Profile.sol:Rubyscore_Profile",
        "label": "_balances",
        "offset": 0,
        "slot": "3",
        "type": "t_mapping(t_address,t_uint256)"
      },
      {
        "astId": 428,
        "contract": "contracts/Rubyscore_Profile.sol:Rubyscore_Profile",
        "label": "_tokenApprovals",
        "offset": 0,
        "slot": "4",
        "type": "t_mapping(t_uint256,t_address)"
      },
      {
        "astId": 434,
        "contract": "contracts/Rubyscore_Profile.sol:Rubyscore_Profile",
        "label": "_operatorApprovals",
        "offset": 0,
        "slot": "5",
        "type": "t_mapping(t_address,t_mapping(t_address,t_bool))"
      },
      {
        "astId": 24,
        "contract": "contracts/Rubyscore_Profile.sol:Rubyscore_Profile",
        "label": "_roles",
        "offset": 0,
        "slot": "6",
        "type": "t_mapping(t_bytes32,t_struct(RoleData)19_storage)"
      },
      {
        "astId": 3168,
        "contract": "contracts/Rubyscore_Profile.sol:Rubyscore_Profile",
        "label": "baseURI",
        "offset": 0,
        "slot": "7",
        "type": "t_string_storage"
      },
      {
        "astId": 3170,
        "contract": "contracts/Rubyscore_Profile.sol:Rubyscore_Profile",
        "label": "baseExtension",
        "offset": 0,
        "slot": "8",
        "type": "t_string_storage"
      },
      {
        "astId": 3172,
        "contract": "contracts/Rubyscore_Profile.sol:Rubyscore_Profile",
        "label": "premiumPrice",
        "offset": 0,
        "slot": "9",
        "type": "t_uint256"
      },
      {
        "astId": 3176,
        "contract": "contracts/Rubyscore_Profile.sol:Rubyscore_Profile",
        "label": "userPremiumStatus",
        "offset": 0,
        "slot": "10",
        "type": "t_mapping(t_address,t_bool)"
      },
      {
        "astId": 3180,
        "contract": "contracts/Rubyscore_Profile.sol:Rubyscore_Profile",
        "label": "_userToName",
        "offset": 0,
        "slot": "11",
        "type": "t_mapping(t_address,t_string_storage)"
      },
      {
        "astId": 3183,
        "contract": "contracts/Rubyscore_Profile.sol:Rubyscore_Profile",
        "label": "_tokenIdCounter",
        "offset": 0,
        "slot": "12",
        "type": "t_struct(Counter)1834_storage"
      }
    ],
    "types": {
      "t_address": {
        "encoding": "inplace",
        "label": "address",
        "numberOfBytes": "20"
      },
      "t_bool": {
        "encoding": "inplace",
        "label": "bool",
        "numberOfBytes": "1"
      },
      "t_bytes32": {
        "encoding": "inplace",
        "label": "bytes32",
        "numberOfBytes": "32"
      },
      "t_mapping(t_address,t_bool)": {
        "encoding": "mapping",
        "key": "t_address",
        "label": "mapping(address => bool)",
        "numberOfBytes": "32",
        "value": "t_bool"
      },
      "t_mapping(t_address,t_mapping(t_address,t_bool))": {
        "encoding": "mapping",
        "key": "t_address",
        "label": "mapping(address => mapping(address => bool))",
        "numberOfBytes": "32",
        "value": "t_mapping(t_address,t_bool)"
      },
      "t_mapping(t_address,t_string_storage)": {
        "encoding": "mapping",
        "key": "t_address",
        "label": "mapping(address => string)",
        "numberOfBytes": "32",
        "value": "t_string_storage"
      },
      "t_mapping(t_address,t_uint256)": {
        "encoding": "mapping",
        "key": "t_address",
        "label": "mapping(address => uint256)",
        "numberOfBytes": "32",
        "value": "t_uint256"
      },
      "t_mapping(t_bytes32,t_struct(RoleData)19_storage)": {
        "encoding": "mapping",
        "key": "t_bytes32",
        "label": "mapping(bytes32 => struct AccessControl.RoleData)",
        "numberOfBytes": "32",
        "value": "t_struct(RoleData)19_storage"
      },
      "t_mapping(t_uint256,t_address)": {
        "encoding": "mapping",
        "key": "t_uint256",
        "label": "mapping(uint256 => address)",
        "numberOfBytes": "32",
        "value": "t_address"
      },
      "t_string_storage": {
        "encoding": "bytes",
        "label": "string",
        "numberOfBytes": "32"
      },
      "t_struct(Counter)1834_storage": {
        "encoding": "inplace",
        "label": "struct Counters.Counter",
        "members": [
          {
            "astId": 1833,
            "contract": "contracts/Rubyscore_Profile.sol:Rubyscore_Profile",
            "label": "_value",
            "offset": 0,
            "slot": "0",
            "type": "t_uint256"
          }
        ],
        "numberOfBytes": "32"
      },
      "t_struct(RoleData)19_storage": {
        "encoding": "inplace",
        "label": "struct AccessControl.RoleData",
        "members": [
          {
            "astId": 16,
            "contract": "contracts/Rubyscore_Profile.sol:Rubyscore_Profile",
            "label": "members",
            "offset": 0,
            "slot": "0",
            "type": "t_mapping(t_address,t_bool)"
          },
          {
            "astId": 18,
            "contract": "contracts/Rubyscore_Profile.sol:Rubyscore_Profile",
            "label": "adminRole",
            "offset": 0,
            "slot": "1",
            "type": "t_bytes32"
          }
        ],
        "numberOfBytes": "64"
      },
      "t_uint256": {
        "encoding": "inplace",
        "label": "uint256",
        "numberOfBytes": "32"
      }
    }
  }
}